:1000000020040020911D0000AD1D0000B11D000066
:10001000B51D0000B91D0000BD1D0000000000005E
:10002000000000000000000000000000C11D0000F2
:10003000C51D000000000000C91D00001F1B0000BE
:10004000CD1D0000D11D0000D51D0000D91D0000F0
:10005000DD1D0000E11D0000E51D0000E91D0000A0
:10006000ED1D0000F11D0000F51D0000F91D000050
:10007000FD1D0000011E0000051E0000091E0000FD
:100080000D1E0000111E0000151E0000191E0000AC
:100090001D1E0000211E0000251E0000291E00005C
:1000A0002D1E0000311E0000351E0000391E00000C
:1000B0003D1E0000411E0000451E0000491E0000BC
:1000C0004D1E0000511E0000551E0000591E00006C
:0C00D0005D1E0000611E0000651E0000A7
:1000DC008B0013EB401313F184431A60704738B54F
:1000EC000400DFF81006056855F0804562780021A1
:1000FC00E06800F003FBA2780121E06800F0FEFA52
:10010C00E2780221E06800F0F9FA22790321E06834
:10011C0000F0F4FA62790421E06800F0EFFAA279B9
:10012C000521E06800F0EAFA207B800716D5DFF89D
:10013C00C805054020780543607A55EA0045A07A49
:10014C0055EA4045E07955EA0065207A55EA0035D4
:10015C0094F84C00002801D055F48075207B4007A2
:10016C0017D5DFF8C4060540207855EA8005607A7B
:10017C0055EA8045A07A55EAC045E07955EA4065D4
:10018C00207A55EA403594F84C00002801D055F4FB
:10019C000075207B000717D5DFF890060540207806
:1001AC0055EA0015607A55EA0055A07A55EA405593
:1001BC00E07955EA8065207A55EA803594F84C0050
:1001CC00002801D055F48065207BC00617D5DFF8D8
:1001DC0060060540207855EA8015607A55EA80550E
:1001EC00A07A55EAC055E07955EAC065207A55EAFF
:1001FC00C03594F84C00002801D055F40065A36A72
:10020C00626A216AE06800F0FEF894F82E3094F8E7
:10021C002D2094F82C10E06800F089F8A36B626B29
:10022C00216BE06800F0A1F994F83D2094F83C10A3
:10023C00E06800F04BF9A2696169E06800F016FA19
:10024C00217FE06800F0E5F9DFF8A804056020786C
:10025C0000280CD0022803D002D3032807D00CE0CE
:10026C0001220521DFF8CC05FFF732FF05E0002263
:10027C000521DFF8C005FFF72BFFDFF8B805006894
:10028C0030F44030216C0843DFF8A8150860DFF823
:10029C00A405006830F4F800616C0843DFF894158D
:1002AC000860DFF89005006830F0E040A16C08436E
:1002BC00DFF88015086015F0706F05D0E279072122
:1002CC00DFF87005FFF704FF01220021DFF8640559
:1002DC00FFF7FEFE0121206900F001F831BD38B5B1
:1002EC0004000D00A00706D5EDB22A000121DFF8AD
:1002FC004405FFF7EDFE600706D5EDB22A0002219A
:10030C00DFF83005FFF7E4FE200706D5EDB22A0032
:10031C000321DFF82005FFF7DBFEE00606D5EDB282
:10032C002A000421DFF80C05FFF7D2FE31BDF8B529
:10033C0004000D0016001F0034F01E00002805D02C
:10034C004FF43771DFF8F00400F09EFAA00714D5D3
:10035C00EDB22A001E21DFF8EC04FFF7B9FEF6B26D
:10036C0032001D21DFF8DC04FFF7B2FEFFB23A00C9
:10037C001C21DFF8D004FFF7ABFE600714D5EDB2FB
:10038C002A001E21DFF8D004FFF7A2FEF6B23200DD
:10039C001D21DFF8C404FFF79BFEFFB23A001C21BD
:1003AC00DFF8B404FFF794FE200714D5EDB22A0051
:1003BC001E21DFF8A804FFF78BFEF6B232001D21D8
:1003CC00DFF89804FFF784FEFFB23A001C21DFF837
:1003DC008C04FFF77DFEE00614D5EDB22A001E2139
:1003EC00DFF87C04FFF774FEF6B232001D21DFF853
:1003FC007004FFF76DFEFFB23A001C21DFF86004B9
:10040C00FFF766FEF1BD2DE9F04104000D0016006A
:10041C001F0034F01E00002805D040F20F31DFF829
:10042C00180400F031FA042D05DB40F21231DFF82C
:10043C00080400F029FA402E05DB40F21331DFF8F6
:10044C00F80300F021FA042F05DB4FF44571DFF8B7
:10045C00E80300F019FA55EA062050EA07408046F6
:10046C00A0070AD5DFF8DC030068DFF8DC130840CE
:10047C0058EA0000DFF8CC13086060070AD5DFF8F3
:10048C00D8030068DFF8C013084058EA0000DFF812
:10049C00C813086020070AD5DFF8C0030068DFF82E
:1004AC00A813084058EA0000DFF8B0130860E00613
:1004BC000AD5DFF8AC030068DFF88C13084058EA63
:1004CC000000DFF89C130860BDE8F08170B50400F3
:1004DC000D00160034F01E00002805D040F24A3101
:1004EC00DFF8540300F0D0F9A0070DD5EDB22A00C7
:1004FC001D21DFF85803FFF7EBFDF6B232001C218B
:10050C00DFF84803FFF7E4FD60070DD5EDB22A00D4
:10051C001D21DFF85003FFF7DBFDF6B232001C2182
:10052C00DFF84003FFF7D4FD20070DD5EDB22A000C
:10053C001D21DFF83403FFF7CBFDF6B232001C218E
:10054C00DFF82403FFF7C4FDE0060DD5EDB22A0059
:10055C001D21DFF81803FFF7BBFDF6B232001C219A
:10056C00DFF80803FFF7B4FD70BD2DE9F04104007E
:10057C000D0016001F0034F01E00002805D040F2BC
:10058C007931DFF8B40200F07FF9042D04DB4FF46D
:10059C005F71A94800F078F9402E04DB40F27D3100
:1005AC00A54800F071F9042F04DB40F27E31A2481B
:1005BC0000F06AF955EA062050EA07408046A00789
:1005CC0007D5A2480068A049084058EA00009F4996
:1005DC000860600707D5A34800689B49084058EAA3
:1005EC000000A0490860200707D59F48006896497D
:1005FC00084058EA00009C490860E00607D59B4873
:10060C0000689149084058EA000098490860BDE824
:10061C00F08138B504000D0034F01E00002804D021
:10062C0040F2B131844800F02FF9A00705D5EDB2A6
:10063C002A001C218648FFF74BFD600705D5EDB25B
:10064C002A001C218A48FFF743FD200705D5EDB28F
:10065C002A001C218748FFF73BFDE00605D5EDB2CB
:10066C002A001C218448FFF733FD31BDF8B5040086
:10067C000D00160034F01E00002804D040F2D931D1
:10068C006D4800F001F9042D04DB4FF477716A48D2
:10069C0000F0FAF8042E04DB40F2DD31664800F07D
:1006AC00F3F855EA06200700A00706D5684800684D
:1006BC0068490840384366490860600706D56C48AD
:1006CC00006864490840384369490860200706D52A
:1006DC00684800685F490840384366490860E0068E
:1006EC0006D5654800685B49084038436249086094
:1006FC00F1BD000000800040FCEEFCFE2DE9F04155
:10070C0004000D00160000275FF0000834F01E00F6
:10071C00002804D040F21241474800F0B5F8002CF4
:10072C0000F07F80A00703D54448804602200700D4
:10073C00600703D55148804604200700200703D5E5
:10074C004F48804608200700E00603D54D488046F8
:10075C0010200700EDB2002D0FD0022D1BD013D3AB
:10076C00042D26D01ED3062D31D029D3082D3CD0F4
:10077C0034D30A2D47D03FD34CE0F6B232000421DB
:10078C004046FFF7A5FC4AE0F6B232000321404692
:10079C00FFF79EFC43E0F6B2320002214046FFF721
:1007AC0097FC3CE0F6B2320001214046FFF790FC8A
:1007BC0035E0F6B2320000214046FFF789FC2EE00E
:1007CC00F6B2320005214046FFF782FC27E0F6B274
:1007DC00320004211A48FFF77BFC20E0F6B232000D
:1007EC0003211748FFF774FC19E0F6B2320002211E
:1007FC001348FFF76DFC12E0F6B2320001211048ED
:10080C00FFF766FC0BE0F6B2320000210C48FFF754
:10081C005FFC04E040F25741074800F035F8BC4358
:10082C007DE7BDE8F0810000F3DDF3FDCFBBCFFB2E
:10083C003F773FF714800040D01C00001080004030
:10084C007C80004008800040FCC0FCFF0C80004015
:10085C0004800040FCFCFFFF1C8000402C8000400A
:10086C003C800040208000403080004040800040B0
:10087C0018800040288000403880004024800040D0
:10088C003480004044800040FEE710B450F8041B54
:10089C0081B102681218001D50F8043BDC0744BFFC
:1008AC00A9F10104E31852F8044B43F8044B091F57
:1008BC00F9D1EBE710BC704738B504000D00E4B279
:1008CC00062C01DA102D05D340F2DF11DFF83006CB
:1008DC00FFF7DAFF0120A840E4B22421DFF8242638
:1008EC0001FB0421486131BD38B504000D00E4B2B0
:1008FC00062C01DA102D05D340F20B21DFF800068F
:10090C00FFF7C2FF0120A840E4B22421DFF8F42550
:10091C0001FB0421086131BD38B504000025A00796
:10092C0009D50220DFF8E0150860042000F021F85A
:10093C0000F09DF80500E00709D50120DFF8C81587
:10094C000860032000F015F800F075FA0500EDB210
:10095C00002D00D1FEE70021DFF8B00500F076F89D
:10096C00DFF8AC0500F065F8DFF8A815088000206A
:10097C0032BD38B5040000250121DFF8A00500F0D8
:10098C0008FCDFF894050470E4B2012C06D039D3CE
:10099C00032C1DD00FD3042C27D033E001230422C9
:1009AC000F21012000F00CFE012304220D21032055
:1009BC0000F006FE29E0002304220F21012000F0A4
:1009CC00FFFD002304220D21032000F0F9FD1CE0A3
:1009DC00012304220F21012000F0F2FD0023042248
:1009EC000D21032000F0ECFD0FE0002304220F2169
:1009FC00012000F0E5FD012304220D21032000F06D
:100A0C00DFFD02E05FF0FF300500280032BD10B5BD
:100A1C000400E4B2002C05D00121DFF8040500F03D
:100A2C0015F804E00021DFF8F80400F00FF80020BE
:100A3C0010BD10B50400DFF8D0040068022801D105
:100A4C00208802E0200000F00EFA10BD38B504003A
:100A5C000D00DFF8B4040068022801D1258004E001
:100A6C00290089B2200000F028FA002032BD00B520
:100A7C0095B000A8DFF8B014502200F019FE012147
:100A8C00DFF8A00400F085FB0121DFF8900400F0F2
:100A9C0080FB002304220021002000F091FD0023A4
:100AAC0004220121002000F08BFD002304220221EE
:100ABC00002000F085FD002304220321002000F01B
:100ACC007FFD002304220421002000F079FD002387
:100ADC0004220521002000F073FD002304220621CE
:100AEC00002000F06DFD002304220F21002000F0F7
:100AFC0067FD002304220021012000F061FD00238A
:100B0C0004220121012000F05BFD002304220221BC
:100B1C00012000F055FD002304220321012000F0E8
:100B2C004FFD002304220421012000F049FD002385
:100B3C0004220521012000F043FD0023042206219C
:100B4C00012000F03DFD012304220921032000F0C7
:100B5C0037FD012304220A21032000F031FD01237B
:100B6C0004220B21032000F02BFD012304220C2175
:100B7C00032000F025FD002304220821042000F0AE
:100B8C001FFD002304220921042000F019FD00237D
:100B9C0004220A21042000F013FD002304220B215F
:100BAC00042000F00DFD002304220C21042000F091
:100BBC0007FD002304220D21042000F001FD002379
:100BCC0004220E21042000F0FBFC002304220F2140
:100BDC00042000F0F5FC002301220221052000F086
:100BEC00EFFC002304220821052000F0E9FC00237F
:100BFC0004220921052000F0E3FC002304220B2130
:100C0C00022000F0DDFC002304220621052000F068
:100C1C00D7FC002304220721052000F0D1FC08207A
:100C2C0003900820049001208DF8000001208DF81D
:100C3C00020001208DF8070001208DF8080000202B
:100C4C008DF8090001208DF81C0001208DF82D0075
:100C5C005FF4003010905FF4B80011905FF080509A
:100C6C00129000200690002005900420099000208E
:100C7C000A900020089002200D9000200E90002079
:100C8C000C9000A8FFF72BFA02200390022004908E
:100C9C0001208DF8000001208DF8020000208DF855
:100CAC00070001208DF81C0000208DF82D0001207C
:100CBC008DF808000320069003200590072009906A
:100CCC0003200A900320089007200D9003200E901B
:100CDC0003200C9000A8FFF702FA042003900420D4
:100CEC000490012006900120059007200990032014
:100CFC000A900320089002200D9001200E900120F4
:100D0C000C9000A8FFF7EBF9102003901020049032
:100D1C0001208DF8000001208DF8020001208DF8D3
:100D2C00070001208DF81C0000208DF82D000120FB
:100D3C008DF80800002006900020059006200990F0
:100D4C0000200A900020089005200D9000200E90A5
:100D5C0000200C9000A8FFF7C2F90120FFF757FE06
:100D6C007248008880B24EF63271884201D0002061
:100D7C0000E0012015B000BDF8B504000D00160010
:100D8C0005210220FFF798FD14F0030050EAC5017D
:100D9C00C9B2674800F088FD654800F07FFD31005E
:100DAC00C9B2634800F080FD614800F077FD070090
:100DBC00B6B2310AC9B25E4800F076FD5C4800F06C
:100DCC006DFD57EA0020070005210220FFF78CFD7E
:100DDC00380080B2F2BD00B587B000A85649182281
:100DEC0000F066FC0121534800F0D3F900230422E3
:100DFC000221022000F0E4FB002301220321022047
:100E0C0000F0DEFB002304220421022000F0D8FBBA
:100E1C00012304220521022000F0D2FB4748019057
:100E2C004748029000A9424800F0A7FC0B20454916
:100E3C00086007B000BD10B50121434800F0A9F9C6
:100E4C000121364800F0A5F9FFF7C5FF374800F03F
:100E5C000AF80400A4B24EF63270844201D000208D
:100E6C0000E0012010BD38B5040038480068844209
:100E7C0012D0220092B200210020FFF77DFF200C3F
:100E8C00C2B200210120FFF777FFA00E10F0030281
:100E9C0000210220FFF770FF002201210320FFF741
:100EAC006BFF0500002201210320FFF765FF050001
:100EBC0026480460280080B232BD38B504000D000D
:100ECC0022480068844212D0220092B200210020F5
:100EDC00FFF752FF200CC2B200210120FFF74CFF9C
:100EEC00A00E10F0030200210220FFF745FF2A009C
:100EFC0092B200210320FFF73FFF1448046031BD7C
:100F0C00B01B0000006000400C00002002000080BC
:100F1C002C000080180000201A00002000D20200D3
:100F2C0014000080005304000C1C0000040000801E
:100F3C0000C8004000220200781D0000006CDC029A
:100F4C00C0CF6A0054C8004010810200100000207D
:100F5C008B0013EB401313F184431A60704738B5C0
:100F6C00DFF898040068050CEDB22800482821D061
:100F7C004A2802D04B2820D022E0DFF884040068F5
:100F8C0010F03F0000020400DFF87804006810F055
:100F9C00F0000443DFF870040068C0F3031004434E
:100FAC00A4B2B4F5017F02DBDFF860040EE0DFF8D9
:100FBC00A0050BE0DFF8980508E0DFF8500405E029
:100FCC008221DFF89005FFF75FFC002032BD38B5B9
:100FDC000400002C02D0B4F5004F05D940F20F11DB
:100FEC00DFF87005FFF750FCB4FA84F0D0F11F0065
:100FFC000500280032BD38B5DFF85C0500F008FAB2
:10100C000500EDB22800022804D0032806D00828D9
:10101C0008D00BE000F0C1FC040009E000F0B7FCC4
:10102C00040005E000F05FFC040001E00020040077
:10103C00200032BDDFF82415096811F4E0610029A5
:10104C001BD0B1F5807F14D0B1F5007F0DD0B1F578
:10105C00407F06D0B1F5C06F17D0B1F5E06F10D05E
:10106C0017E0DFF8FC14080015E0DFF8F8140800AE
:10107C0011E0DFF8F41408000DE0DFF8F0140800BC
:10108C0009E0DFF8EC14080005E0DFF8F0140800C4
:10109C0001E000210800704738B5DFF8D80400F0F3
:1010AC00B7F90500EDB2280007280DD008280FD19C
:1010BC0000F019FC0400DFF8C8040068C0F38230AB
:1010CC00401CB4FBF0F40BE0FFF7B4FF040007E0A6
:1010DC004FF4CB71DFF8B004FFF7D6FB002004000F
:1010EC00200032BD38B50400002C07D0012C05D0EF
:1010FC0040F2AD11DFF89004FFF7C6FBDFF88C046B
:10110C0000682100C9B24900C84010F00300002853
:10111C0021D0022807D002D3032808D02AE000F0FF
:10112C0036FC050028E000F038FC050024E0DFF870
:10113C0048040068C00504D4DFF84404006840008B
:10114C0004D500F0BCFB8008050003E000F0B7FB01
:10115C004008050010E0DFF834040068A1001031ED
:10116C00C840002803D000F015FC050001E0002069
:10117C00050001E000200500280032BDDFF8041452
:10118C000968C90704D4DFF80C1409680142FAD1C4
:10119C0070472DE9F84304000D005FF00008C4F31C
:1011AC000320C0B2012809D039D303280ED009D3AB
:1011BC0005282AD023D306282DD030E0DFF8D80319
:1011CC00060033E0DFF8DC0306002FE0DFF8D8037D
:1011DC000600FFF7C4FE8146DFF8D00300F037F8B5
:1011EC0081450BD201221E21DFF89403FFF7B0FEDC
:1011FC0001220821DFF88003FFF7AAFE16E0DFF8D2
:10120C00B00306000120804610E0DFF8A8030600BA
:10121C00102080460AE0DFF8A003060006E040F24A
:10122C004741DFF86403FFF72FFB0EE0C4F30430F3
:10123C000700B8F1000F02D04046FFF79FFFEDB258
:10124C002A0039003000FFF783FEBDE8F18370B54A
:10125C00040014F47810002830D0B0F5003F39D0D9
:10126C00B0F5802F48D0B0F5C02F49D0B0F5002F85
:10127C004BD0B0F5202F53D0B0F5402F5CD0B0F54B
:10128C00602F6BD0B0F5801F7CD0B0F5901F00F0B4
:10129C008480B0F5A01F00F08580B0F5B01F00F081
:1012AC008C80B0F5C01F00F09380B0F5D01F00F01B
:1012BC009380B0F5E01F00F0938095E000F013FBF5
:1012CC000500DFF8BC020068C0F38230401CB5FB9F
:1012DC00F0F591E000F007FB0500DFF8A4020068D0
:1012EC00C0F38230401CB5FBF0F5DFF8AC020068AF
:1012FC0010F00F00C5407FE000F0E1FA05007BE044
:10130C000020FFF7EFFE050076E00020FFF7EAFE75
:10131C000500DFF888020068C0F30310C5406BE0DD
:10132C000020FFF7DFFE0500DFF870020068000AFE
:10133C0010F00F00C5405FE00020FFF7D3FE050062
:10134C00DFF858020068000B10F003061020FFF7BE
:10135C003EFE801935FA00F005004DE00020FFF745
:10136C00C1FE0500DFF834020068000B10F003002A
:10137C00C540DFF84802006810F00700401CB5FBC0
:10138C00F0F539E00020FFF7ADFE0500DFF80C02A8
:10139C00006810F00300C5402EE00120FFF7A2FE0C
:1013AC00050029E00120FFF79DFE0500DFF8F001A4
:1013BC00006810F00300C5401EE00120FFF792FE0C
:1013CC000500DFF8DC010068C0F30110C54013E034
:1013DC00FFF762FE05000FE0FFF72CFE05000BE0A7
:1013EC00FFF709FE050007E040F2F141DFF8980134
:1013FC00FFF74AFA00200500280070BDFC81E00FC1
:10140C00E0FF0FE0E8FF0FE0ECFF0FE000366E01AD
:10141C00F8B5040001254FF47050070014F00F00CC
:10142C000600012E08D0C0F08980032E3BD01CD3BF
:10143C00052E68D055D381E0DFF8540100683840A0
:10144C00B0F5006F0BD0B0F5805F05D0B0F5005F44
:10145C0008D10220050007E00320050004E0042069
:10146C00050001E0052005006FE0DFF820010068B1
:10147C0010F00300012804D00CD3032807D003D3A9
:10148C0008E0032005000DE0022005000AE006201C
:10149C00050007E0DFF8F4000068C00302D509205E
:1014AC000500FFE751E0DFF8E400006810F00C00E5
:1014BC00042804D0082805D00C2806D008E0032006
:1014CC0005000DE0022005000AE00620050007E0FB
:1014DC00DFF8B8000068C00202D509200500FFE75C
:1014EC0033E0072005002648006810F080500028E3
:1014FC0003D0B0F1805F03D004E00720050001E0C9
:10150C000820050021E0DFF88800006810F4603046
:10151C00B0F5004F0CD0B0F5803F03D0B0F5003FD4
:10152C0003D008E00220050007E00320050004E0DA
:10153C000820050001E00120050006E040F2D15131
:10154C001148FFF7A1F9002005002800C0B2F2BD38
:10155C000048E801AC1C000005231C0014800C4062
:10156C0040420F00C0CF6A00C0D8A700809FD500B2
:10157C00406F40010400180004800C40003FAB0198
:10158C0000800C4054800C40AC1C000028800C40A7
:10159C002C800C4050800C4008800C4068800C4023
:1015AC0070800C4044800C4040800C4020000400B3
:1015BC0058800C4060800C4078800C407C800C4043
:1015CC00F8B504000D0016001F00E4B2062C01DA79
:1015DC00102D03D3CC213448FFF756F9F6B2002E68
:1015EC0012D0002F08D00120A840E4B224212F4AA9
:1015FC0001FB0421086107E00120A840E4B224218A
:10160C002A4A01FB04214861082D19D2E4B2242096
:10161C00264900FB041040680F212A00D2B2920028
:10162C0091408843F6B22900C9B2890016FA01F13B
:10163C000843E4B224211D4A01FB042148601AE04E
:10164C00E4B22420194900FB041080680F212A0001
:10165C00083AD2B2920091408843F6B22900083978
:10166C00C9B2890016FA01F10843E4B224210F4AE9
:10167C0001FB04218860F6B2002E12D1002F08D095
:10168C000120A840E4B22421084A01FB042108618E
:10169C0007E00120A840E4B22421044A01FB042104
:1016AC004861F1BD00000000F41C00000060004027
:1016BC00103A07D330B4B1E83810103AA0E838101B
:1016CC00F9D230BC530724BFB1E80810A0E80810C9
:1016DC0044BF51F8043B40F8043BD20724BF31F817
:1016EC00022B20F8022B44BF0B7803707047083A8A
:1016FC0007D3B1E80810083A40F8043B40F804CB93
:10170C00F7D25307E4E750F8041B61B150F8042BEF
:10171C00D30744BFA9F101039A18002342F8043BF4
:10172C00091FFAD1EFE77047F8B504000D00160059
:10173C00002E04D140F2C1114F48FFF7A5F8002D3F
:10174C0003D14E48FFF783FD050068000700701EAB
:10175C00C719B7FBF6F73F1F40204743C0373F0A76
:10176C003F024748874204D34FF4F8714248FFF7D1
:10177C008BF8444807406761F1BD38B504000D0093
:10178C00414884420AD04148844207D040488442B0
:10179C0004D040F272213848FFF776F8200000F0B0
:1017AC0031F8A87B002802D04FF4806000E00020C4
:1017BC002168B5F91020104350F001000843206057
:1017CC00A87C002801D0102000E00020297D0029F1
:1017DC0002D05FF0005100E0002122680843104362
:1017EC002060287B50F480506060AA6869682000F3
:1017FC00FFF79AFF687B002801D01020E060287862
:10180C00E06031BD10B504001F48844210D01F4861
:10181C0084420DD01E4884420AD01E48844207D010
:10182C001D48844204D04FF450711348FFF72CF834
:10183C0040F6AA60E0600020206041F20500606084
:10184C000020A060002060610020E06441F6F97087
:10185C00A064002060650C48844201D10020206502
:10186C000020A0650948844202D00948844201D175
:10187C000020E06510BD00005C1C0000108102001F
:10188C00C1FF1F00C0FF1F0000C0004000C400408B
:10189C0000C8004000E0004000E400400169090677
:1018AC00FCD5C069C0B2704702695206FCD5C9B2FA
:1018BC00416370473A480068000EC0B2704710B5DB
:1018CC0000F011F8040037480068C0F38230401C67
:1018DC00B4FBF0F43448006810F00F00C4403348F7
:1018EC000460200010BD10B53148006810F4705031
:1018FC00B0F5006F0DD0B0F5805F06D0B0F5005F8D
:10190C000BD12C48006804003EE04FF4004004006A
:10191C003AE029480068040036E02848006810F4D2
:10192C00E060002824D0B0F5807F17D0B0F5007FA0
:10193C0011D0B0F5407F0BD0B0F5806F05D0B0F56D
:10194C00A06F1FD11E4804001EE01E4804001BE0BF
:10195C001D48040018E01D48040015E0FFF7AAFF1D
:10196C00132802DB1A48040001E01A4804000BE0BB
:10197C00FFF7A0FF132802DB1748040001E017480B
:10198C00040001E000200400200010BD70474FF45B
:10199C00004070474FF47A707047064800687047F3
:1019AC00FC81E00F00800C4004800C4014000020EF
:1019BC002C800C4004000020000000200C800C4007
:1019CC00003FAB01406F4001809FD500C0D8A700FD
:1019DC0040B56400C0CF6A00804F120040420F0037
:1019EC002148006850F400501F49086021480068E5
:1019FC0050F004001F4908601E48006830F4407025
:101A0C001C4908601C48006830F470601A49086072
:101A1C001948006850F48060174908601020134979
:101A2C000860134800688006FBD514480068C001A4
:101A3C0018D41248006850F08070104908601048A3
:101A4C00104908600F201049086002200F490860F7
:101A5C004FF480700E4908600E480F4908600F481B
:101A6C000F4908607047000044800C4020800C40F7
:101A7C002C800C4020610040B8600040FCED00E080
:101A8C00FF130140001000E0100004E0F00004E03F
:101A9C00040304E055CEACC5B00F00E00900010012
:101AAC00800E00E010B55FF07E642068002801D144
:101ABC00002002E0FFF794FF012010BD10B440B2EB
:101ACC00002808D54A0140B210F00F03284C1B190E
:101ADC0003F8042C03E04A0140B2264BC25410BC5C
:101AEC00704710B50400601EB0F1807F01D3012057
:101AFC000EE0601E2049086007215FF0FF30FFF701
:101B0C00DDFF00201D49086007201D4908600020EA
:101B1C0010BD1C480068401C1A4908607047194ADF
:101B2C0012681100174A1268521A8242FAD370478F
:101B3C0080B51548FFF78BFB4FF47A71B0FBF1F0D1
:101B4C00FFF7CFFF002800D0FEE70120FEF7E4FEF0
:101B5C00FFF7A8FF4FF47F4000F018F8C820FFF7FC
:101B6C00DEFFFF2000F012F8C820FFF7D8FFF1E7E6
:101B7C0018ED00E000E400E014E000E018E000E004
:101B8C0010E000E0080000202000040010B5040064
:101B9C00210089B20248FEF759FF002010BD000059
:101BAC0006000080633A5C776F726B5C7330323581
:101BBC005F73775C6B6974735C45464D3332474792
:101BCC005F444B333735305C6578616D706C657391
:101BDC005C626C696E6B5C6961725C2E2E5C2E2E85
:101BEC005C2E2E5C2E2E5C2E2E5C656D6C69625C00
:101BFC00696E635C656D5F6770696F2E68000000CD
:101C0C0000000000000000000000000002000000C6
:101C1C0002000000000000000100000000000000B5
:101C2C0000000000000000000000000000000000A8
:101C3C000000000000000000010000000000000097
:101C4C000000000000000000000000000100000087
:101C5C00633A5C776F726B5C733032355F73775CB1
:101C6C00656D6C69625C7372635C656D5F757361E5
:101C7C0072742E630000000010B5074979441831C6
:101C8C00064C7C44163404E00A68081D5118884739
:101C9C000146A142F8D110BD740000009400000070
:101CAC00633A5C776F726B5C733032355F73775C61
:101CBC00656D6C69625C7372635C656D5F636D7599
:101CCC002E630000633A5C776F726B5C7330323555
:101CDC005F73775C656D6C69625C7372635C656D78
:101CEC005F6562692E630000633A5C776F726B5CB0
:101CFC00733032355F73775C656D6C69625C7372DF
:101D0C00635C656D5F6770696F2E6300FBF9FFFFA5
:101D1C001400000008000020000000006FEBFFFF23
:101D2C000800000038010000000000200000000046
:101D3C0000F00BF8002801D0FFF79EFF0020C046F2
:101D4C00C046FFF7F5FE00F002F80120704700F0E6
:101D5C0001B800000746384600F002F8FBE7000027
:101D6C0001491820ABBEFBE726000200050000006D
:101D7C000000000040420F000501000000000000C0
:101D8C0000000000014880470148004799190000F5
:101D9C00A11D0000C046C046C046C046FFF7C8FFA4
:101DAC00FFF7FEBFFFF7FEBFFFF7FEBFFFF7FEBF5B
:101DBC00FFF7FEBFFFF7FEBFFFF7FEBFFFF7FEBF4B
:101DCC00FFF7FEBFFFF7FEBFFFF7FEBFFFF7FEBF3B
:101DDC00FFF7FEBFFFF7FEBFFFF7FEBFFFF7FEBF2B
:101DEC00FFF7FEBFFFF7FEBFFFF7FEBFFFF7FEBF1B
:101DFC00FFF7FEBFFFF7FEBFFFF7FEBFFFF7FEBF0B
:101E0C00FFF7FEBFFFF7FEBFFFF7FEBFFFF7FEBFFA
:101E1C00FFF7FEBFFFF7FEBFFFF7FEBFFFF7FEBFEA
:101E2C00FFF7FEBFFFF7FEBFFFF7FEBFFFF7FEBFDA
:101E3C00FFF7FEBFFFF7FEBFFFF7FEBFFFF7FEBFCA
:101E4C00FFF7FEBFFFF7FEBFFFF7FEBFFFF7FEBFBA
:101E5C00FFF7FEBFFFF7FEBFFFF7FEBF006CDC0213
:041E6C0000800000F2
:0400000300001DA13B
:00000001FF
