:1000000080110020F1000000F9000000FB0000005A
:10001000FD000000FF0000000101000000000000E2
:1000200000000000000000000000000003010000CC
:10003000050100000000000007010000DD110000C4
:10004000D50C00000B010000151300006D1300001B
:10005000D51300000B0100000B0100000B01000094
:100060000B0100000B0100000B0100000B01000060
:100070000B0100000B0100000B0100007D140000CB
:10008000D91400000B0100000B0100000B0100005F
:100090000B0100000B0100000B0100000B01000030
:1000A0000B0100000B010000011100000B0100001A
:1000B0000B0100000B010000911100000B0100007A
:1000C0000B0100000B0100000B0100000B01000000
:1000D0000B0100000B0100000B010000DFF80CD049
:1000E00000F0A0F800480047FD3A00008011002011
:1000F0000648804706480047FEE7FEE7FEE7FEE7C2
:10010000FEE7FEE7FEE7FEE7FEE7FEE7F912000086
:10011000DD00000040EA01039B0703D009E008C9A5
:10012000121F08C0042AFAD203E011F8013B00F8BC
:10013000013B521EF9D27047D2B201E000F8012B08
:10014000491EFBD270470022F6E710B513460A4657
:1001500004461946FFF7F0FF204610BD421E12F874
:10016000013F002BFBD111F8013B02F8013B002BB2
:10017000F9D1704730B505462A460B4612F8010BF7
:1001800013F8014B08B1A042F8D01CB1002802D0EE
:100190006D1CF1E7284630BD421C10F8011B0029F8
:1001A000FBD1801A704730B504460020034600E0BA
:1001B0005B1C934203D2E05CCD5C401BF8D030BDA9
:1001C0002DE9F05F0546002092469B46884606468C
:1001D000814640241BE0284641464746224600F01F
:1001E00042F853465A46C01A914110D31146184658
:1001F000224600F029F82D1A67EB01084F462246E7
:100200000120002100F020F817EB00094E41201ECC
:10021000A4F10104DFDC484631462A464346BDE8E6
:10022000F09F0000064C074D06E0E06840F0010337
:1002300094E8070098471034AC42F6D3FFF752FF1A
:10024000686A0000886A0000202A04DB203A00FA6D
:1002500002F1002070479140C2F1200320FA03F31D
:10026000194390407047202A04DB203A21FA02F01B
:100270000021704721FA02F3D040C2F120029140E0
:1002800008431946704770B501EB020410F8015B92
:1002900015F0070301D110F8013B2A1106D110F81F
:1002A000012B03E010F8016B01F8016B5B1EF9D123
:1002B0002B0705D40023521E0FD401F8013BFAE7A7
:1002C00010F8013B02F10202A1EB030303E013F873
:1002D000015B01F8015B521EF9D5A142D6D3002083
:1002E00070BD30B54FF0844505EB401404EB81033D
:1002F0001A6030BD30B54FF0844505EB401404EB77
:1003000081031A6030BD00001349496901F4E061BE
:10031000B1F5407F0FD007DC99B1B1F5807F0ED0E9
:10032000B1F5007F13D108E0B1F5C06F0DD0B1F584
:10033000E06F0CD107E009480BE0094809E00948E3
:1003400007E0094805E0094803E0094801E000200A
:1003500000BF00BF7047000000800C4040420F000B
:10036000C0CF6A00C0D8A700809FD500406F400171
:10037000003FAB012DE9F04105460C46C5F30316DD
:10038000062E70D2DFE806F0BB152155920300F06F
:10039000A5FB5D48006820F4E031601E41EA803032
:1003A0005949086000F022FF0746384600F042FB3A
:1003B000A6E0204600F038FB04465348806820F051
:1003C0000F002043504988609AE000F087FB5120DD
:1003D00000F0F0F8B0FBF4F800F0DEFB80450BD83D
:1003E00000221E214848FFF77CFF002208214648D2
:1003F000001DFFF776FF0AE001221E214248FFF7A9
:1004000070FF012208214048001DFFF76AFF2046C7
:1004100000F00AFB04463C48406820F00F002043EF
:100420003949486000F0E2FE0746384600F002FB1A
:1004300066E03648281806D0B0F5043F14D0B0F571
:10044000FE2F30D120E0042000F014FC204600F004
:10045000EBFA04462C48806E20F0F00040EA0410CD
:100460002949886620E04AE0042000F003FC204689
:1004700000F0DAFA04462448806E20F4706040EA06
:100480000420214988660FE0042000F0F3FB204699
:1004900000F0CAFA04461C48806E20F00300204396
:1004A0001949886600E000BF00BF29E018482818F5
:1004B00003D0B0F5043F1FD10EE0402000F0DAFB7E
:1004C000204600F0B1FA04460F48006F20F0030008
:1004D00020430D49086710E0402000F0CBFB204688
:1004E00000F0A2FA04460848006F20F0300040EA0D
:1004F00004100549086700E000BF00BF00E000BF2E
:1005000000BFBDE8F081000000800C40D0EBF7FF99
:10051000C0FAEBFF2DE9F04705460E464FF0000804
:10052000C5F3032007282ED2DFE800F02D040609CA
:1005300020252A001D4C28E01C4C3C3425E01B4C97
:1005400038341B4800F036F8814600F025FB814521
:100550000BD901221E2115480838FFF7C2FE0122DF
:1005600008211248001FFFF7BCFE0EE00F4C50346C
:100570004FF0010809E00D4C58344FF0100804E02A
:100580000A4C703401E0BDE8F08700BFC5F30437C2
:10059000B8F1000F02D0404600F06CFB32463946FD
:1005A0002046FFF79EFE00BFEDE7000008800C40EC
:1005B0002000040070B5054605F47810C103C90B8E
:1005C00074D140140F2871D2DFE800F008132327FC
:1005D0002C367070404A4F5963676C0000F01EFE65
:1005E000044635480068C0F38230401CB4FBF0F488
:1005F0005EE000F013FE04462F480068C0F382302E
:10060000401CB4FBF0F42C48806800F00F00C4409C
:100610004EE000F0EBFD04464AE0002000F07CFADA
:10062000044645E0002000F077FA04462248806E38
:10063000C0F30310C4403BE0002000F06DFA044614
:100640001D48806EC0F30320C44031E0002000F05C
:1006500063FA04461848806E00F00300C44027E0A7
:10066000012000F059FA044622E0012000F054FA7B
:1006700004461148006F00F00300C44018E0012058
:1006800000F04AFA04460C48006FC0F30110C44061
:100690000EE000F0A7F904460AE0FFF735FE044635
:1006A00006E003E000F0F6FA044601E0002400BF93
:1006B00000BF204670BD000000800C4001460120B4
:1006C00001F00F02062A79D2DFE802F078031A352A
:1006D000505F3C4BDB6A03F47053B3F5006F09D0F5
:1006E000B3F5805F04D0B3F5005F05D1022005E0CB
:1006F000032003E0042001E0052000BF00BF5FE00D
:10070000304B9B6A03F00303012B04D0022B04D06F
:10071000032B06D103E003200BE0022009E00620B2
:1007200007E0284B9B6A13F4803F01D0092000E0CA
:1007300000BF00BF44E0234B9B6A03F00C03042B73
:1007400004D0082B04D00C2B06D103E003200BE0CF
:10075000022009E0062007E01A4B9B6A13F4801F71
:1007600001D0092000E000BF00BF29E0154B1B6845
:1007700013F0805303D0B3F1805F04D101E0072070
:1007800001E0082000BF00BF1AE00E4BDB6A03F453
:100790006033B3F5004F07D0B3F5803F06D0B3F513
:1007A000003F07D104E009E0082005E0022003E053
:1007B000032001E0012000BF00BF01E0002000BFD6
:1007C00000BF704700800C402DE9F84F80460D4671
:1007D0004FF0030A032000904FF0000908F00F07C4
:1007E000062F6ED2DFE807F0F3035A5BACC2A81EF7
:1007F00008283DD2DFE800F004090E363C3C3C3BC3
:100800004FF0040A0020009034E04FF0030A01206A
:1008100000902FE04FF0020A0220009000F066FDE9
:10082000834600F0B9F9834513D96B48006840F05E
:10083000600040F08040684908600846006C10F095
:10084000100F0ED0012208216348001DFFF749FD5B
:1008500007E06148006820F0600040F020005E4939
:10086000086007E04FF0010A0320009002E001E079
:10087000BDE8F88F00BF01221146009800F0BEF9D4
:1008800000F02CF95448C0F824A000F00BFB00F055
:10089000ADFC0646304600F0CDF899E000BF0A2DC9
:1008A00035D2DFE805F03405070F34341634343020
:1008B00000242DE001221146002000F09FF90224BF
:1008C00026E084E001221146104600F097F9012449
:1008D0001EE00122042140484030FFF702FD0324BE
:1008E00000F084FC064600F057F9B0420AD201221B
:1008F0001E213948FFF7F5FC012208213648001D6A
:10090000FFF7EFFC04E000244FF0010900E0AFE73F
:1009100000BF022F09D13048806A30490840204387
:1009200040EA09402C49886209E02B48806A2C493A
:10093000084040EA840040EA09502749886247E0BD
:10094000072D02D0082D0ED106E02348006820F0C4
:1009500080502149086007E01F48006840F080503F
:100960001D49086000E083E700BF31E0022D0DD093
:10097000032D1AD0082D27D120201749486200BF27
:100980001548C06A10F4004FFAD01EE0012211464B
:10099000002000F033F940200F49486200BF0E48A4
:1009A000C06A10F4803FFAD00FE0012211461046D1
:1009B00000F024F960200849486200BF0648C06A78
:1009C00010F4003FFAD000E052E700BF00E000BFA3
:1009D00000BF00BF4CE7000000800C40FCFFFEFFA2
:1009E000F3FFEFFF70B50E48FFF768FE0546072DD1
:1009F0000CD0082D0ED100F011FC04460948006807
:100A0000C0F38230401CB4FBF0F405E0FFF77CFC3F
:100A1000044601E0002400BF00BF204670BD000076
:100A20000400180000800C400146B1FA81F2C2F1C6
:100A30001F0070470146264A5068264A914215D940
:100A400010F007020CD0012A0BD0022A02D0032A90
:100A500005D100E000BF20F00702501D05E000BFF7
:100A600000BF20F00702101D00BF00BF1A4A9142CC
:100A700015D95200914212D800F00702022A04D080
:100A8000032A03D0052A05D100BF00BF20F00702CA
:100A9000D01C03E020F00702501C00BF00BF0E4A2C
:100AA000914211D800F00702022A05D0032A02D091
:100AB000052A05D100BF00BF20F00702901C02E00C
:100AC00020F0070000BF00BF014A506070470000DF
:100AD00000000C400048E8010024F4000D4948687B
:100AE00000F00701062910D2DFE801F004030A092B
:100AF000050B00BF00BF20F00701081D05E000BF87
:100B000000BF20F00701481D00BF00BF0149486039
:100B10007047000000000C4070B505461D48806A13
:100B20006900C84010F0030022D0012804D0022838
:100B300006D0032829D107E000F0DFFB044626E0B9
:100B400000F0DEFB044622E01248406800F48070AA
:100B5000B0F5807F04D00F48006810F0804F03D0BC
:100B600000F044FB840802E000F040FB44080EE083
:100B70000848806A102101EB8501C84003D000F0CD
:100B8000C5FB044600E0002401E0002400BF00BFD4
:100B9000204670BD00800C4014480068C0F3074236
:100BA000482A1CD04A2A02D04B2A1CD119E01048EE
:100BB00000688006810C0E4808300068C0F30310FE
:100BC00041EA00110A480C300068C0F303100143E9
:100BD000B1F5017F01DB074870470748FCE706488D
:100BE000FAE70448F8E70020F6E70000FC81E00F90
:100BF000E0FF0FE000366E010048E8012DE9F04704
:100C0000074688469146062F1BD2DFE807F0130FF0
:100C100007030B1801250226022413E004250826E9
:100C200008240FE01025202620240BE040258026F4
:100C3000802407E04FF480756E006C0002E0BDE890
:100C4000F087FCE700BFB8F1000F0AD00848056242
:100C5000B9F1000F07D000BF0548C06A2042FBD0A1
:100C600001E00348066200F01DF900BFE7E700005D
:100C700000800C400649496D11F0010F00D070470B
:100C800000BF0349096D0142FBD100BFF7E7000037
:100C900000800C4070B50E48FFF710FD0546022D90
:100CA00004D0032D06D0082D0CD107E000F028FB5E
:100CB000044609E000F021FB044605E000F0AEFA2E
:100CC000044601E0002400BF00BF204670BD0000C4
:100CD00005231C002DE9F84F21480668C06806402E
:100CE00016F0004F01D000BFFEE71E48D0F8388054
:100CF00006EA08074FF000092DE0002525E017F06F
:100D0000010F20D01748D0F808B00120A84000906B
:100D10001349009888600BEB0510C46894B194F8EF
:100D200008A0207A80F001002072206850B162682B
:100D3000BAF1000F01D0012000E000200146284652
:100D40002368984700BF7F086D1C002FD7D126EA83
:100D5000080709F10109B9F1020FCEDBBDE8F88FF0
:100D600000300C4000200C407CB504461D48C06A91
:100D70001D4908801D48006840F004001B490860B8
:100D800001F04EFF05469DB119480068194900EA77
:100D9000010000904FF0E0210098C1F88001164852
:100DA000006820F04600019011480199C0F88410B5
:100DB00030BF3DB10E49009808604FF0E021019826
:100DC000C1F8040114B100F019F809E006480088E0
:100DD00010F4806F04D100BF00F008FA00BF00BF1C
:100DE0007CBD000000800C404803002010ED00E0B6
:100DF00000E100E09CF1FD0004E100E02649096803
:100E000001F0010000BF45F60E01244AC2F884102B
:100E100000BF2349098801F4AA7111622049098899
:100E200001F47051B1F5006F1AD0B1F5805F03D0B5
:100E3000B1F5005F1ED109E000BF1849C96A11F081
:100E4000800FFAD00321154A516214E000BF134904
:100E5000C96A11F4007FFAD00421104A51620AE0F5
:100E600000BF0E49C96A11F0080FFAD002210B4ADF
:100E7000516200E000BF00BF0949097811F0010F7D
:100E800002D10221054A116228B100BF0021024AA5
:100E9000116000BF00BF704784800C4000800C4090
:100EA000480300200248C06A0249088070470000D9
:100EB00000800C404803002010B5642000F036FA92
:100EC0000921002000F0ECF810BD10B50921002028
:100ED00000F0B6F8642000F029FA10BD1CB505201A
:100EE0000190012101A800F01DF80221684600F0E0
:100EF00003F89DF801001CBD2DE9F04104460D46A4
:100F00002746002606E0064800F072FC38707F1C79
:100F1000701C06B2AE42F6DB0120BDE8F081000095
:100F200000C800402DE9F04104460D462746002642
:100F300006E03978054800F073FC7F1C701C06B28F
:100F4000AE42F6DB0120BDE8F081000000C80040A1
:100F500008B50420009001216846FFF7E3FF012057
:100F600008BD08B50620009001216846FFF7DAFFAA
:100F7000012008BD70B58AB143B101248C4000EB5B
:100F8000C005284E06EB85052C6107E001248C4046
:100F900000EBC005234E06EB85056C61082914D2D1
:100FA00000EBC0041F4D05EB840464688E000F2520
:100FB000B540AC438D0002FA05F52C4300EBC005AB
:100FC000184E06EB85056C6017E000EBC004154D6C
:100FD00005EB8404A468A1F10805AE000F25B54017
:100FE000AC43A1F10805AD0002FA05F52C4300EB76
:100FF000C0050C4E06EB8505AC608AB943B10124EF
:101000008C4000EBC005074E06EB85052C6107E020
:1010100001248C4000EBC005024E06EB85056C6197
:1010200070BD00000060004010B501228A4000EB56
:10103000C003024C04EB83035A6110BD0060004002
:1010400010B501228A4000EBC003024C04EB83037D
:101050005A6110BD0060004010B501228A4000EBCB
:10106000C003024C04EB83035A6110BD00600040D2
:1010700010B501228A4000EBC003024C04EB83034D
:101080005A6110BD0060004010B501228A4000EB9B
:10109000C003024C04EB83031A6110BD00600040E2
:1010A00010B501228A4000EBC003024C04EB83031D
:1010B0001A6110BD0060004010B501228A4000EBAB
:1010C000C003024C04EB83031A6110BD00600040B2
:1010D00010B501228A4000EBC003024C04EB8303ED
:1010E0001A6110BD0060004010B501228A4000EB7B
:1010F000C003024C04EB83031A6110BD0060004082
:1011000010B50121034800F009F8012002490870D8
:1011100010BD0000002008403003002081627047AD
:1011200000F01F0201219140024A430942F82310B6
:101130007047000080E200E000F01F0201219140B2
:1011400042094FF0E02303EB8202C2F8001170471E
:10115000024612B1012A05D101E0054803E0044826
:10116000001D00E0704700BF016000BFFAE700000B
:101170000800084030B5054A00214FF0844505EBD2
:10118000421404EB8103186000BF30BD000008402A
:1011900010B502200549886100BF01F07DFB0448BD
:1011A0000068401C0249086010BD000000000840B3
:1011B0002003002001460A780AB1012000E0002047
:1011C0004A780AB140F002008A780AB140F004007F
:1011D000014A1060704700000000084002480068A3
:1011E000401C0149086070473403002000B500F03E
:1011F00015F8024607480068C0F38230401CB2FB75
:10120000F0F20448406800F00F00C240024802605B
:10121000104600BD00800C40580300202749C96AD1
:1012200001F47051B1F5006F0BD0B1F5805F05D0BE
:10123000B1F5005F08D1224908683DE04FF4004055
:101240003AE02049086837E01C49C96801F4E061C8
:10125000B1F5407F12D007DCF9B1B1F5807F11D034
:10126000B1F5007F24D10BE0B1F5806F04D0B1F56A
:10127000A06F1DD114481DE014481BE0144819E06C
:10128000144817E000BF144909684FEA1161132997
:1012900001DB124800E012480CE000BF0E4909686B
:1012A0004FEA1161132901DB0E4800E00E4801E00E
:1012B000002000BF00BF00BF00BF704700800C408F
:1012C0005403002050030020003FAB01406F400159
:1012D000809FD500C0D8A700FC81E00F40B5640016
:1012E000C0CF6A00804F120040420F0001480068E2
:1012F000704700005003002070474FF400407047D3
:101300000148006870470000540300204FF47A70D1
:101310007047000001200349886100BF024908703E
:10132000704700000000014031030020044A1168AA
:1013300000BF034A1268521A8242FAD37047000073
:101340003403002001480068704700003403002087
:10135000002107E0002200E0521C40F6E4439A42DC
:10136000FAD3491C8142F5D37047000010B51648E6
:10137000006C10F0040F26D0134800F039FA044630
:101380001248D0F8040211490C540846D0F804025F
:10139000401CC0F30800C1F804020846D0F8080257
:1013A000401CC1F808020A480088401C084908800F
:1013B0000648D0F80802B0F5007F03D901200349A0
:1013C00081F80C0200BF10BD00C00040DC05002009
:1013D0003C03002010B51448006C10F0020F22D01E
:1013E0001248D0F80802B0B11048D0F800020F4AF5
:1013F000115C0D4800F014FA0C48D0F80002401CB3
:10140000C0F308000949C1F800020846D0F80802F4
:10141000401EC1F808020548D0F8080218B9022198
:10142000014800F0B5F910BD00C00040EC070020F5
:1014300000B587B018220F4901A8FEF76BFE4FF4E4
:10144000E130039000208DF8100005208DF8110088
:101450000020ADF812004FF48050ADF814000020C9
:101460008DF816008DF8170001A9034800F03BF92C
:1014700007B000BDD469000000C0004010B514489A
:10148000006810F0040F21D01148403800F0B0F986
:1014900004461048D0F804020E490C540846D0F80F
:1014A0000402401CC0F30800C1F804020846D0F84A
:1014B0000802401CC1F808020846D0F80802B0F53E
:1014C000007F02D9012081F80C0200BF10BD00008E
:1014D00040C40040FC09002010B51548006810F019
:1014E000020F24D01348D0F80802B8B11148D0F840
:1014F0000002104A115C0E48403800F091F90D4886
:10150000D0F80002401CC0F308000A49C1F80002EC
:101510000846D0F80802401EC1F808020548D0F875
:10152000080220B902210248403800F031F910BD0C
:1015300040C40040CC03002000B587B018220F49FA
:1015400001A8FEF7E7FD4FF46140039000208DF8FD
:10155000100005208DF811000020ADF812004FF4A6
:101560008050ADF8140000208DF816008DF817009B
:1015700001A9034800F0B7F807B000BDEC6900000E
:1015800000C4004000B587B018220E4901A8FEF73C
:10159000C1FD0D48039005208DF8100001208DF845
:1015A00012008DF811000020ADF814008DF816001F
:1015B00001208DF8180001A9044800F0B5F807B023
:1015C00000BD0000046A000040420F0000C8004057
:1015D00000B587B018220E4901A8FEF79BFD0D4803
:1015E000039005208DF8100000208DF812000120D6
:1015F0008DF811000020ADF814008DF816000120C0
:101600008DF8180001A9044800F08EF807B000BD5D
:101610001C6A000040420F0000C800402DE9F0475E
:1016200004460F46904699461FB91A48FEF7C2FF76
:101630000746B9F1000F09D0B9F1200F08D0B9F170
:10164000400F07D0B9F1600F08D105E0102507E081
:10165000082505E0062503E0042501E0BDE8F08744
:1016600000BFB90005FB08F001EB500605FB08F0D0
:10167000B6FBF0F6361FB60107480640206820F09A
:1016800060002060206840EA09002060666100BFB9
:10169000E4E7000010810200C0FF1F002DE9F041C7
:1016A00007460D4616461DB90948FEF783FF054655
:1016B0006C00701E0444B4FBF6F4241FA401C03473
:1016C00024F0FF04034804407C61BDE8F081000081
:1016D00010810200C0FF1F00CA4302F00502530040
:1016E000C360C160704770B505460C46284600F0DF
:1016F00057F8A07C18B1286840F080402860E07C52
:1017000018B1207D40F01000A865607B218A084355
:10171000E18908436860237B2846D4E90112FFF77A
:101720007DFF2078E86070BD70B505460C46284600
:1017300000F036F8208A40F00100A17B11B14FF48F
:10174000806100E000210843296808432860A07CEC
:1017500008B1102000E00020217D11B14FF00051B0
:1017600000E000210843296808432860207B40F4FA
:10177000805068602846D4E90112FFF78FFF607B34
:1017800008B11020E8602078E86070BD816470477F
:10179000C26C8A43C2647047C26C0A43C264704719
:1017A00040F6AA61C1600021016041F2050141607B
:1017B000002181604161C16441F6F97181640021B9
:1017C00041650849884201D10021016500218165F8
:1017D0000549884202D00549884201D10021C165EE
:1017E0007047000000C0004000C4004000C8004036
:1017F000014600BF086910F0800FFBD0C869C0B275
:101800007047024600BF106910F0400FFBD05163D3
:1018100000BF106910F0200FFBD0D069C0B2704734
:1018200000BF026912F0400FFBD041637047000017
:1018300010B502460020144BD3F808328B4205D273
:1018400000BF114BD3F808328B42FAD311B90E4BBB
:10185000D3F808120EE00C4BD3F800320A4CE35CCC
:1018600013542346D3F800325B1CC3F30803C4F8B7
:101870000032401C8842EED3034BD3F808325B1A87
:10188000014CC4F8083210BDDC0500202DE9F843F6
:1018900004460E4617460025002000902070804622
:1018A000FFF750FD81461BE00020009001F054F846
:1018B00078B101216846FFF7BBFF9DF800007F2843
:1018C00007DC9DF800002070641C002020706D1C57
:1018D0008046B84500D306E0FFF734FDA0EB0908C9
:1018E000701EA842E0D800BF15B10120BDE8F88302
:1018F0000020FBE770B506460C460025B4F5007FD6
:1019000000D970BD1748D0F808022044B0F5007F18
:1019100007D900BF1348D0F808022044B0F5007F73
:10192000F8D80FE0705D0F49D1F804120D4A5054F9
:101930001046D0F80402401CC0F308001146C1F85C
:1019400004026D1CA542EDD30648D0F808022044DD
:101950000449C1F8080202210348FFF71DFF00BF38
:10196000CFE70000EC07002000C0004010B541F6B2
:10197000F9710C48FFF70AFF04210A48FFF70CFF32
:101980000320FFF7CDFB0420FFF7CAFB0320FFF77E
:10199000D3FB0420FFF7D0FB05210248FFF79CFE94
:1019A00010BD000000C000400E49D1F8081229B94E
:1019B00000BF0C49D1F808120029FAD00949D1F822
:1019C0000012084A505C1146D1F80012491CC1F3BC
:1019D0000801C2F800121146D1F80812491EC2F8D7
:1019E00008127047FC0900200348D0F8080208B923
:1019F000002070470120FCE7FC09002070B5064676
:101A00000C460025B4F5007F00DD70BD1748D0F806
:101A100008022044B0F5007F07D900BF1348D0F872
:101A200008022044B0F5007FF8D80FE0705D0F4940
:101A3000D1F804120D4A50541046D0F80402401C4C
:101A4000C0F308001146C1F804026D1CA542EDD395
:101A50000648D0F8080220440449C1F808020221CF
:101A60000348FFF799FE00BFCFE70000CC0300203A
:101A700000C4004010B541F6F9710C48FFF786FE2E
:101A800004210A48FFF788FE0F20FFF749FB1020CA
:101A9000FFF746FB0F20FFF74FFB1020FFF74CFB33
:101AA00005210248FFF718FE10BD000000C40040E9
:101AB00070B504462046FEF76FFB85B229462046E6
:101AC000FFF79CFF70BD000070B50446207808B198
:101AD000012500E00025607808B145F00205A078F6
:101AE00008B145F00405E07808B145F00805207913
:101AF00008B145F02005607908B145F04005E0796E
:101B00000003217A40EA0120054300BF09488068AC
:101B100010F0010FFAD107480560A07948B120788C
:101B200010B100F009F804E0012204210148FEF799
:101B3000E1FB70BD0080084010B500BF054880681B
:101B400010F0010FFAD1012204210248FEF7D2FB66
:101B500010BD0000008008400EB50D4A07CA8DE890
:101B6000070000208DF801008DF802008DF80300B9
:101B70008DF804008DF805008DF806008DF807003B
:101B80000F208DF808006846FFF79EFF0EBD00008D
:101B9000346A00000FB4084B10B504A902AA0398D8
:101BA00000F034F8044602A9002000F05EFA204656
:101BB00010BC5DF814FB00006B20000030B58FB046
:101BC00004460D462B46224604A16846FFF7E2FF75
:101BD0006846FFF76DFF0FB030BD00004552524F11
:101BE00052202573203A202564200A0002E008C80C
:101BF000121F08C1002AFAD170477047002001E087
:101C000001C1121F002AFBD1704700002DE9FF4FD0
:101C10008DB00F4605460026DEE1252874D100244C
:101C20006D1CF149A246A14601222B78203B02FA05
:101C300003F0084202D004436D1CF6E728782A28F6
:101C400010D06FF02F022878A0F13001092915D8A3
:101C50000AEB8A0102EB410144F0020400EB010AA5
:101C60006D1CF0E757F804ABBAF1000F03DA44F447
:101C70000054CAF1000A44F002046D1C28782E2892
:101C800017D115F8010F44F004042A280ED06FF084
:101C90002F022878A0F1300109290AD809EB89011F
:101CA00002EB410100EB01096D1CF2E757F8049BC0
:101CB0006D1C28786C280FD006DC4C2817D06828BB
:101CC0000DD06A2814D104E0742810D07A280FD1DE
:101CD0000DE044F400140AE044F4801401E044F4FC
:101CE00040146978814202D16D1C04F580146D1C8A
:101CF0002A786E2A20D00DDC632A33D005DC002A36
:101D00006FD0582A12D1A2E011E0642A6AD0692A61
:101D10000CD167E0732A2FD004DC6F2A6FD0702AB1
:101D200004D199E0752A6BD0782A6AD01046DDE993
:101D30000F129047761C4EE1C4F30250022806D0E1
:101D400003280AD0042801CF0AD0066043E101CF5E
:101D50004FEAE671C0E900613DE101CF06803AE15A
:101D6000067038E117F8040B8DF8000000208DF89C
:101D70000100EB46012003E057F804BB4FF0FF30B1
:101D800061074FF0000102D40DE008F1010188461F
:101D900049450FDA8045F8DB1BF808100029F4D11B
:101DA00008E008F1010188468142FADB1BF80810BF
:101DB0000029F6D1DDE90F23AAEB08008146214670
:101DC00000F03BF9304400EB080604E0DDE90F12B7
:101DD0001BF8010B9047B8F10108F7D2214648469D
:101DE000F4E0FDE00A21C4F302534FF0000B089128
:101DF000022B07D001CFC117032B09D00AE034E032
:101E000023E024E0FF1D27F00707F7E8020105E0C3
:101E100000B2C117042B01D140B2C117002907DA63
:101E20004FF0000CD0EB0C006CEB01012D2302E015
:101E3000230504D52B238DF82430012303E0E30789
:101E400001D02023F7E7984650E00A210EE0102049
:101E50004FF0000B08900CE010214FF0000B44F005
:101E600004044FF00809089103E008214FF0000B2B
:101E70000891C4F30253022B04D001CF0021032B9D
:101E800006D006E0FF1D27F00707F7E8020103E090
:101E900080B2042B00D1C0B24FF00008230725D533
:101EA000702A2AD0DDF820C08CF0100C5CEA0B0CF4
:101EB00009D150EA010306D030238DF824308DF883
:101EC000252002239846DDF820C08CF0080C5CEA3F
:101ED0000B0C0BD150EA010301D1630706D5302367
:101EE0008DF824304FF00108A9F10109582A09D0D2
:101EF0003EA20B9208AA0A9211E040238DF82430EA
:101F00000123DFE73EA2F4E75B46089AFEF758F9A3
:101F10000B9B9B5C0A9AA2F101020A92137050EA91
:101F20000102F1D10A98ADEB000000F1200B60072F
:101F300002D524F4803401E04FF00109D94502DDD7
:101F4000A9EB0B0000E0002000EB0B0141440890DE
:101F5000AAEB010AE00306D4DDE90F23214650462F
:101F600000F06BF80644002008E009A911F8090008
:101F7000DDE90F129047761C09F1010081464045CA
:101F8000F3DBE0030CD5DDE90F232146504600F0DA
:101F900054F8064404E0DDE90F1230209047761C27
:101FA0000899481E08900029F5DC08E00A980A996B
:101FB0000078491C0A91DDE90F129047761CBBF1AD
:101FC0000001ABF1010BF1DC21465046DDE90F23A6
:101FD00000F020F806446D1C287800287FF41DAE20
:101FE00011B03046BDE8F08F09280100303132339E
:101FF0003435363738396162636465660000000045
:10200000303132333435363738394142434445462E
:10201000000000002DE9F041044600251E46174649
:10202000880405D406E039462020B04705F10105B3
:10203000641EF8D52846BDE8F0812DE9F04104463C
:1020400000251E469046C80301D5302700E0202712
:10205000880405D506E041463846B04705F101053C
:10206000641EF8D52846BDE8F0810A68531C0B6051
:102070001070704770B504460D4604B103E0352179
:1020800012A0FFF79BFD05B103E036210FA0FFF77B
:1020900095FD204600F012F908B1002070BD94F8BB
:1020A000840000EB4010011921222846FEF732F887
:1020B00094F88410481CC11700EB91718910A0EBB3
:1020C000810184F884100120E8E700002E2E5C4E88
:1020D0006F726469634150495C6163695F717565E2
:1020E00075652E637070000070B504460D4604B12E
:1020F00003E0452112A0FFF761FD05B103E0462191
:102100000FA0FFF75BFD204600F0FCF808B10020AF
:1021100070BD94F8840000EB40100119212228467C
:10212000FDF7F8FF94F88410481CC11700EB91717B
:102130008910A0EB810184F884100120E8E70000F9
:102140002E2E5C4E6F726469634150495C61636915
:102150005F71756575652E637070000070B504461B
:102160000D466E7804B103E0572116A0FFF726FD57
:1021700005B103E0582113A0FFF720FD204600F031
:10218000E1F808B1002070BD002094F8851001EB43
:102190004111605494F8851001EB41112144481C11
:1021A000721C691CFDF7B6FF94F88510481CC11716
:1021B00000EB91718910A0EB810184F8851001205A
:1021C000E1E700002E2E5C4E6F7264696341504956
:1021D0005C6163695F71756575652E637070000081
:1021E00070B504460D466E7804B103E06A2116A06E
:1021F000FFF7E4FC05B103E06B2113A0FFF7DEFC61
:10220000204600F0CDF808B1002070BD002094F801
:10221000851001EB4111605494F8851001EB4111D8
:102220002144481C721C691CFDF774FF94F885104A
:10223000481CC11700EB91718910A0EB810184F853
:1022400085100120E1E700002E2E5C4E6F7264695C
:10225000634150495C6163695F71756575652E63A3
:102260007070000070B5044604B103E028210CA092
:10227000FFF7A4FC002084F8840084F88500002582
:102280000BE0002005EB451121444870002105EBCF
:10229000451020448170681CC5B2042DF1DB70BD6F
:1022A0002E2E5C4E6F726469634150495C616369B4
:1022B0005F71756575652E637070000070B50446BA
:1022C000002504B103E07D2107A0FFF777FC01F0B2
:1022D000B1FF94F8840094F88510884200D101255C
:1022E00000F0A2FE284670BD2E2E5C4E6F7264690F
:1022F000634150495C6163695F71756575652E6303
:102300007070000010B5044604B103E08C2106A0F3
:10231000FFF754FC94F8840094F88510884201D1AA
:10232000012010BD0020FCE72E2E5C4E6F72646908
:10233000634150495C6163695F71756575652E63C2
:102340007070000070B5044604B103E096210DA042
:10235000FFF734FC01F06EFF94F88510481CC1179C
:1023600000EB91718910A0EB8101CEB294F884004A
:10237000B04201D1012500E0002500F055FE2846BD
:1023800070BD00002E2E5C4E6F726469634150492F
:102390005C6163695F71756575652E6370700000BF
:1023A00070B5044694F88510481CC11700EB917174
:1023B0008910A0EB8101CDB204B103E0AF2105A0EB
:1023C000FFF7FCFB94F88400A84201D1012070BD06
:1023D0000020FCE72E2E5C4E6F7264696341504909
:1023E0005C6163695F71756575652E63707000006F
:1023F00070B504460D4604B103E0B6210CA0FFF70A
:10240000DDFB05B103E0B72109A0FFF7D7FB2046AC
:10241000FFF754FF08B1002070BD94F8840000EB72
:102420004010011921222846FDF774FE0120F3E730
:102430002E2E5C4E6F726469634150495C61636922
:102440005F71756575652E637070000070B5054627
:102450000C46002618E0237803EB43136869184400
:102460004078821C237803EB43136869C11809483C
:10247000FDF750FE074800F09DFD08B9304670BDDD
:1024800001262078401C20702178287E8142E2DBE2
:102490003046F4E7580D0020012101700E214170F3
:1024A0007047052202700F2242700A881312C3700F
:1024B0000A7882704A88131243718B7803717047CF
:1024C00070B504460E461546681C207002206070E8
:1024D0002A463146A01CFDF71DFE70BD012101708A
:1024E0000A214170704770B504460D461646B01C6F
:1024F00020700D2060702878A0703246691CE01CA6
:10250000FDF708FE70BD02220270012242700A78B7
:102510008270704710B500F039F8012010BD10B579
:1025200001F07CF910BD00000348807F032801D131
:10253000012070470020FCE77003002010B5002147
:102540000220FEF7A1FD06210220FEF76DFD02210B
:102550000020FEF769FD10BD10B506210220FEF730
:1025600093FD02210020FEF78FFD00210220FEF7DF
:102570005BFD10BD70B504460D462B462246012179
:10258000014801F085F970BD7003002010B51548B1
:1025900010B11549C86002E000201349C860042149
:1025A00011480174114941611721017600200E493B
:1025B000087006204870012088700220C87003202F
:1025C00008710420487100208871FF20C8710872CA
:1025D0004872002088720120C8720021024801F070
:1025E00029F910BD00000020700300201000002019
:1025F00010B500F05DF900F001F810BD10B5002332
:10260000042219461846FEF7B5FC002304220321D4
:102610001846FEF7AFFC0023042211461846FEF7C9
:10262000A9FC002304220D211046FEF7A3FC002381
:1026300001220E210420FEF79DFC002304220F211D
:102640001046FEF797FC00210220FEF735FD092118
:102650000020FEF731FD10BD10B590B0002403211D
:1026600006A0FFF747F940F6B8334022694604A0B8
:1026700000F080F80446204610B010BD2B2B2B0034
:102680004F4B000030B5A1B00025802101A8FDF717
:102690005AFD40F6B830802301AA0BA100900CA08F
:1026A00000F040F820B108A101A8FDF763FD044641
:1026B0003CB109342078312802D02078352800D167
:1026C0000125284621B030BD43475245473A000016
:1026D00041542B43475245473F0000002DE9F0414C
:1026E00094B006460C46154600273046FDF754FDCB
:1026F000804641463046FFF7FDF8022108A0FFF76B
:10270000F9F81CB9012014B0BDE8F081ABB24F223A
:102710006946204600F02EF807463846F3E70000E9
:102720000D0A00002DE9F04707460C4615461E46E7
:10273000DDF820804FF000093846FDF72DFD824678
:1027400051463846FFF7D6F8012109A0FFF7D2F825
:1027500014B94FF0010907E01FFA88F33246294601
:10276000204600F007F881464846BDE8F0870000A3
:102770000D0000002DE9F04F95B080460F469146C0
:102780009A4617B901AE502501E03E464D4629460E
:102790003046FDF7D8FC002425E02A1B521E91B2DA
:1027A00030195246FFF772F883463019FDF7F4FCF2
:1027B000204484B2AC4203DA0A203055601C84B253
:1027C000BBF1000F03D1002015B0BDE8F08F4146EA
:1027D0003046FDF7CFFC08B10120F5E72946304629
:1027E000FDF7B1FC0024AC42D7DB0120ECE710B5CB
:1027F00008210320FEF76CFC6420FEF7A9FD0421EC
:102800000320FEF765FC40F63400FEF7A1FD04212D
:102810000320FEF72DFC0A210020FEF729FC10BD45
:1028200038B500241EE00A210020FEF751FC4FF4C9
:102830008070009003E000BF0098401E0090009858
:102840000028F8D10A21FEF713FC4FF480700090A5
:1028500003E000BF0098401E009000980028F8D1C7
:10286000601C84B2642CDEDB0A210020FEF730FC01
:1028700008210320FEF7FCFB6420FEF769FD04211C
:102880000320FEF725FC40F24C40FEF761FD0421D9
:102890000320FEF7EDFB38BD0448036840685A1C6E
:1028A00040F1000001490A60486070472803002099
:1028B00008B51C480068009001211B48FDF72AFE5E
:1028C00002211A48FDF780FF20211948FDF752FD2B
:1028D00001211748FDF71EFE00208DF800008DF83D
:1028E000010001208DF802006846FEF763FC42F605
:1028F000A9210020FEF72CFC1E2001218140420965
:102900004FF0E02303EB8202C2F8001100BF022067
:102910000849C9690143074AD16100BF0120FEF798
:1029200029FC08BD9867000000430400020006006F
:10293000301408000000084001480068704700009B
:10294000200300204FF0E020006940F001004FF02C
:10295000E0210861704700000148D0F80802704784
:10296000DC050020704710B504462046FFF7A0F8AC
:1029700010BD00B503461846FEF7D8FC00BD7047F1
:102980000146022000EBC002044B03EB8202D26935
:10299000CA4002F00102104670470000006000408B
:1029A00070B504460D4625B121460220FEF784FB92
:1029B00003E021460220FEF74FFB70BD2DE9F843EE
:1029C0000746002000908046002588261E4C00F017
:1029D000A5FE10B90120BDE8F883204600F017FFDE
:1029E00008B10220F7E769463846FFF72FFD26E0D9
:1029F000404608F101081549884201D90320EAE759
:102A0000204600F004FFD0B1651C6878842801D00E
:102A10000520E0E7EE78012E02D0022E08D106E074
:102A20004FF0000869463846FFF710FD02E001E06C
:102A30000420D0E700BF2146384600F0A3FE022E56
:102A4000D6D10020C7E70000580D0020FEFF0F0080
:102A500070B56348FDF7AEFD4FF47A71B0FBF1F449
:102A6000601EB0F1807F01D3012019E0601E4FF09D
:102A7000E021486148170721002806DA4A01594B2E
:102A800000F00F052D1F5A5502E04A01564B1A540B
:102A900000BF00204FF0E02188610720086100207E
:102AA00008B100BFFEE701215048FDF733FD504853
:102AB000406D40F004014E484165C06C20F47060E8
:102AC00040F4A0614A48C164C06C20F4704040F4F6
:102AD00080514748C164C06C20F4702040F4A021AC
:102AE0004348C164C06C20F4700040F4A001404829
:102AF000C164406D40F480713D484165006D20F037
:102B00000F00001D3A4908650846006D20F0F000EE
:102B100040F0500136480165006D20F4706040F4CB
:102B2000807133480165406D40F400613048416573
:102B3000006D20F4704040F4A0412D480165006F05
:102B400020F0706040F0807129480167806F40F08C
:102B5000800127488167006F20F0704040F080417D
:102B60002348016701212348FDF7D4FCFEF760FCF0
:102B70002148406D20F4E06040F400701E49486533
:102B80000846406D40F00F00486501211B48FDF7E5
:102B9000C1FCFEF7D1FC1A48006820F4E06040F464
:102BA0000070174908600846006840F0030008609C
:102BB00001211448FDF7AEFCFEF7E4FC1248006862
:102BC00040F00F00104908600F485438006840F486
:102BD00080300D4954390860FEF7BEFF70BD00001B
:102BE0002000040018ED00E000E400E000D2020044
:102BF000006000400002020000C00040001202001D
:102C000054C400400022020054C8004010B50446DD
:102C100021460248FEF7F5FD10BD000000C8004047
:102C20000D4800688006810C0B4808300068C0F32E
:102C3000031041EA001108480C300068C0F303108B
:102C40000143B1F5827F02DBB1F5017F01D10120A3
:102C500070470020FCE70000E0FF0FE010B5012105
:102C60004A48FDF757FC0023042219461846FEF790
:102C700081F90023012211461846FEF77BF9012352
:102C8000042202210020FEF775F90023012203210E
:102C90001846FEF76FF90023012204211846FEF7BB
:102CA00069F90023012205211846FEF763F9002384
:102CB000042208211846FEF75DF9012304220921A8
:102CC0000020FEF757F9002304220A211846FEF7D8
:102CD00051F90123042200210220FEF74BF92C4870
:102CE000C06C20F0F00040F010012948C1640123BD
:102CF000042206210220FEF73DF9002301220721CC
:102D00000220FEF737F90023012208210220FEF7F6
:102D100031F90023042209210220FEF72BF90023B8
:102D2000012219460320FEF725F900230422012180
:102D30000320FEF71FF90023012203210846FEF7B6
:102D400019F90023042211460320FEF713F900238A
:102D5000042205210320FEF70DF901230422082196
:102D60000320FEF707F9002304220D211046FEF789
:102D700001F9002301220E210420FEF7FBF80023B5
:102D800004220F211046FEF7F5F810BD00D2020014
:102D90000060004070B504461A480068807A28B97F
:102DA0001948FFF7CFFA08B900F0D4FD1648FFF72D
:102DB000C9FA054621461448FFF75CF900B31348E9
:102DC000007828B112A0FFF7CEFD204600F096FD56
:102DD00055B10C480068807A30B10A490968C87A50
:102DE00000220C49FFF7BEFD0748FFF7ABFA28B9F0
:102DF0000948FFF763FA08B900F02AFE012070BD08
:102E00000020FCE760030020D20C00205C030020BF
:102E100045000000D93900004C0C002010B50446D4
:102E200007480068807A08B900F094FD21460548FB
:102E3000FFF7DEFA08B1012010BD0020FCE700001A
:102E400060030020D20C002030B587B004460D4648
:102E50002A480570204600F0F5FD2079002101F098
:102E6000F9F9E078032101F0F5F96079032101F027
:102E7000F1F91822224901A8FDF74CF901A92148CE
:102E8000FEF752FC1F485430006840F00F001D4907
:102E9000543108601C48FFF7E5F91C48FFF7E2F9D8
:102EA000A078012101F0D6F96078032101F0D2F970
:102EB000207AFF2803D0207A002101F0CBF900F01E
:102EC00029F820790021FFF76BFDE0780021FFF75A
:102ED00067FD60780121FFF763FD60790021FFF74E
:102EE0005FFD1E20FFF745FDA07A20B1E07A0022A9
:102EF0000749FFF737FD07B030BD00005C03002035
:102F0000506A000000C800404C0C0020D20C002089
:102F1000D939000010B525480068C079FF2832D0A3
:102F200022490968C879022101F094F91F48006814
:102F30000078012804D01D480068007801280FD1CE
:102F40001A490968C8790121FFF72AFD6420FFF7B3
:102F500010FD16490968C8790021FFF721FD23E01B
:102F600012490968C8790121FFF71AFD0F4909685C
:102F7000C8790021FFF714FD0C490968C8790121BF
:102F8000FFF70EFD10E002210020FEF7ADF8002053
:102F9000022101228A4000EBC003054C04EB8303AD
:102FA0005A6100BFFEF7A0F810BD000060030020CA
:102FB0000060004070B50446667800251F2E04DDD1
:102FC0000DA0FFF7D0FC002070BD21460E48FFF792
:102FD000C5F8054675B10D48FFF7B4F908B900F01A
:102FE00037FD0B48007828B10AA0FFF7BCFC20464B
:102FF00000F084FC2846E7E7696E76616C6964201E
:103000006C656E6774680A004C0C0020D20C0020BE
:103010005C0300204300000010B50248FFF74EF9A2
:1030200010BD00004C0C002000BF0749096849B1E1
:1030300005490968491E044A11601146086800B92B
:1030400062B600E000BF70474C0300202DE9F04F4E
:10305000A1B006460D460020209082468346804659
:103060008146C749C74800F08DFB002875D0C44C85
:10307000641CC4480490B5B16278C3A105A8FEF7EA
:1030800089FD05A8FEF714FD6420FFF772FC049883
:10309000827FC2A105A8FEF77DFD05A8FEF708FD09
:1030A0006420FFF766FC94F801A0AAF181000D28C6
:1030B0007CD2DFE800F007BDF65ECFDF7BD77B7BFD
:1030C0007BF5F7002079AF49C87794F802B0BBF1DF
:1030D000010F32D0BBF1020F06D0BBF1030F0ED0AF
:1030E000BBF1040F3BD139E015B1B4A0FEF7E0FC11
:1030F0006420FFF73EFC0120B749087037E015B1A6
:10310000B6A0FEF7D5FC6420FFF733FCE07818B1D9
:103110001420FEF70BF90FE003209A498877012E5F
:103120000AD13102B42000F0FDFA15B1B3A0FEF7C8
:10313000BFFC6420FFF71DFC19E015B1B5A0FEF738
:10314000B7FC4FF47A70FFF714FCB9A0FEF7B0FC9F
:10315000BC49142000F0F8FA09E0EAE007E015B1F4
:10316000B9A0FEF7A5FC6420FFF703FC00BF00BF79
:10317000DDE094F8039094F80280B9F1000F1DD0BF
:10318000002D54D04A46B7A105A8FEF703FD05A8B7
:10319000FEF78EFC6420FFF7ECFB4246B6A105A8C3
:1031A000FEF7F8FC05A8FEF783FC00E0BEE0B7A040
:1031B000FEF77EFC6420FFF7DCFB38E0B8F1010F7E
:1031C0001BD0B8F1030F28D0B8F10A0F03D0B8F123
:1031D000120F2AD119E021796279A379E079CDE93A
:1031E000013203910090237A627AAEA105A8FEF71E
:1031F000D1FC05A8FEF75CFC18E015B1B7A0FEF7FE
:1032000057FC6420FFF7B5FB10E015B1B9A0FEF73D
:103210004FFC6420FFF7ADFB08E015B1BDA0FEF741
:1032200047FC6420FFF7A5FB00E000BF00BF7EE085
:103230001422A11C8348FCF7B6FF18B1BD48FEF765
:1032400037FC06E0BCA0FEF733FC4FF47A70FEF7C3
:103250006DF86CE015B1BBA0FEF72AFC6420FFF707
:1032600088FB64E015B1BBA0FEF722FC6420FFF7E9
:1032700080FB5CE015B1BCA0FEF71AFC6420FFF7F0
:1032800078FB012E0AD13102B42000F04BFA15B1BF
:10329000BFA0FEF70DFC6420FFF76BFB47E001E0E9
:1032A00012E030E0E378A278BFA105A8FEF772FC37
:1032B00005A8FEF7FDFBE078922804D03148C07FD6
:1032C000401C3049C87732E0A278C5A105A8FEF7B6
:1032D00061FC00270BE0E01CC25DC8A11EA8FEF740
:1032E00059FC1EA905A8FCF739FF781C87B2207885
:1032F000801EB842EFDCC2A105A8FCF72FFF05A88D
:10330000FEF7D6FB13E06288BEA105A8FEF742FCDB
:1033100005A8FEF7CDFB012E07D13102B42000F045
:1033200001FA15B1BBA0FEF7C3FB00E000BF00BF70
:1033300019E029480078B0B11248FFF73FFB044676
:103340003CB900202449087065B1B8A0FEF7B0FB75
:1033500008E03DB12246BBA105A8FEF71BFC05A86D
:10336000FEF7A6FB00BF4FEA0A6040EA0B4040EAC6
:10337000082040EA09002090209821B0BDE8F08F95
:10338000A8030020700300204576656E74204F70FE
:10339000436F64652030782578200A006E524638E5
:1033A000303031206F7065726174696E67206D6FA7
:1033B00064652030782578200A0000004576742066
:1033C00044657669636520537461727465643A205C
:1033D00053657475700A00001C0300204576742044
:1033E00044657669636520537461727465643A203C
:1033F0005374616E6462790A00000000416476656E
:1034000072746973696E6720737461727465640A9B
:10341000000000004576742044657669636520539A
:103420007461727465643A20546573740A00000014
:103430005374617274204563686F20746573740AF5
:10344000000000000703002041434920444556493D
:10345000434520737461746520696E76616C69649C
:103460000A000000436D642053746174757320304A
:10347000782578200A00000041434920436F6D6D94
:10348000616E642030782578200A0000457674202B
:10349000436D6420726573706F6E653A2045727279
:1034A0006F722E0020202020202020204465766985
:1034B000636520416464726573733A203078253007
:1034C0003258253032582530325825303258253080
:1034D0003258253032580D0A0000000020676F7402
:1034E0002061207465737420636F6D6D616E64205C
:1034F0000A0D0000204D6178696D756D20545820CB
:10350000706F776572206C6576656C2073657420CA
:103510000A0D000020446972656374205465737459
:10352000204D6F646520636F6E66696775726564B0
:10353000200A0D00506700004563686F204F4B0A5A
:103540000000000045767420436F6E6E65637465FD
:10355000640A0000457674205069706520537461D8
:103560007475730A00000000457674204469736323
:103570006F6E6E65637465642F41647665727469FD
:1035800073696E672074696D6564206F75740A00D5
:103590004164766572746973696E672072657374CD
:1035A00061727465640A00004143492045767420C5
:1035B00050697065204572726F723A20506970656B
:1035C00020233A25642050697065204572726F721D
:1035D00020436F64653A20307825780A00000000A7
:1035E0004461746120726563656976656420506921
:1035F0007065202325303478203A200025630000B0
:103600000D0A00004857206572726F723A202564D7
:10361000200A00004164766572746973696E6720E0
:1036200072657374617274656400000020424C45D9
:1036300020736574757020636F6D706C65746520A0
:103640000D0A2000536574205570204661696C6531
:10365000642C2072657475726E20636F6465203D02
:10366000202564200D0A000070B505460026294E6D
:10367000287801284CD16420FFF77BF900F0FCF892
:1036800044E03146284600F07DF800283ED0741C06
:103690006078842839D1E078832810D104201D492E
:1036A000487081211B4881700221C1700021017185
:1036B0000221417101461848FEF750FD24E0E078F0
:1036C00080B9042013494870812112488170032178
:1036D000C170002101710221417101460E48FEF7BF
:1036E0003DFD11E0E07882280ED1042009494870A0
:1036F0008121084881700121C1700021017141714F
:1037000001460548FEF72AFD01E000BFB9E700BF0A
:1037100070BD0000580D0020D20C002010B5FFF73E
:103720007BFC10BD38B504460D46ADF80040ADF841
:10373000025069460348FEF7B4FE0248401EFFF7F8
:1037400039FC38BD590D002030B589B004460D460E
:103750001D2C02DD002009B030BD1D2C00DD1D2414
:103760002246294601A8FCF7D5FC224601A90448B7
:10377000FEF7A6FE0248401EFFF71CFCEBE7000028
:10378000590D002070B504460D4600262846FFF767
:1037900001FB0646002E38D0681C4178862917D0D8
:1037A000882902D089292DD125E0002100BF0CE015
:1037B000821C535C04F12602535400F10A02535C4C
:1037C00004F12E0253544A1CD1B20829F0DB1AE04E
:1037D000002100BF07E0002304F126025354083201
:1037E00053544A1CD1B20829F5DB002284F8362054
:1037F000627FE27707E04188218481886184C18803
:10380000A18400E000BF00BF00BF304670BD10B50E
:1038100004462046FFF702FB10BD000010B5044827
:10382000FEF75CFE0248401EFFF7C4FB10BD00001F
:10383000590D002070B505460E4600240AE000210F
:1038400005F12600015508300155002008490855AA
:10385000601CC4B2082CF2DB0649E86808603146F7
:103860002846FFF7F1FA2846FFF7FEFE70BD00007C
:10387000680300206403002010B50448FEF70CFE26
:103880000248401EFFF796FB10BD0000590D0020B6
:10389000F0B587B007460C4616461D46601E0E4919
:1038A000096811F82000012801D1142D02DD002043
:1038B00007B0F0BD8DF804402A4631460DF10500F1
:1038C000FCF728FC2A4601A90448FEF70CFE034831
:1038D000401EFFF76FFBEBE764030020590D00204B
:1038E00038B50446009469460348FEF70CFE0248CA
:1038F000401EFFF75FFB38BD590D002070B5A0B02A
:103900000446667832460EA102A8FEF743F9002568
:103910000BE0601C425D0CA16846FEF73BF969466E
:1039200002A8FCF71BFC681CC5B2B542F1DD08A17A
:1039300002A8FCF713FC02A8FEF7BAF820B070BD8D
:103940002564203A0000000025782C2000000000AB
:103950000A00000000B593B01C48FEF7F3FC08B164
:1039600013B000BD1A4909688878FFF709F80128E3
:1039700006D11848FEF7A2FC08B900F069F8EFE795
:103980000AA91448FEF776FB20B900208DF828001C
:103990008DF8290001A90AA800F064F80B48FEF789
:1039A000D1FC28B90B48FEF789FC08B900F050F8A3
:1039B0009DF80500002806DD01A90448FEF7CEFBAE
:1039C00008B900BFFEE700BFCAE70000D20C002024
:1039D000600300204C0C002000B593B00AA91648E3
:1039E000FEF782FB20B900208DF828008DF8290011
:1039F00001A90AA800F036F81048FEF7D1FC28B952
:103A00000D48FEF77FFC08B900F022F89DF805008C
:103A100000280FDD01A90948FEF7E2FB08B900BF45
:103A2000FEE70648FEF7BCFC20B105490968C87AE4
:103A3000FEF7A5FF13B000BD4C0C0020D20C0020F7
:103A40006003002001490860704700006003002007
:103A500010B50349096848780021FEF7A1FF10BDA1
:103A6000600300202DE9F04104460D46FFF7F0FF0A
:103A70004FF00008424608F10108611C885C00F024
:103A800009FC2870424608F10108611C885C00F0BE
:103A900001FC6870607808B96E7809E06978607830
:103AA000401E814201DD687801E06078401EC6B2A8
:103AB0001F2E00DD1F2600270CE041464A1C02F0A5
:103AC000FF08621C505C00F0E5FB691C7A1C8854FE
:103AD000781CC7B2B742F0DB00BF074909684878D5
:103AE0000121FEF75DFF00BF002E02DD0120BDE8D1
:103AF000F0810020FBE7000060030020FEF7A8FF34
:103B0000FFF7ACF8FDF7B6FFFDF730FF05213748AA
:103B1000FDF7E2FD01213648FCF7FCFC41F288305C
:103B2000FDF704FCFEF764FDFEF70CFF4FF4803058
:103B30003049086030A0FDF7BBFF002503E3642097
:103B4000FDF7F4FB34A0FDF7B3FF36A0FDF7B0FF9F
:103B500040A0FDF7ADFF4CA0FDF7AAFF53A0FDF775
:103B6000A7FF5BA0FDF7A4FF62A0FDF7A1FF6CA07B
:103B7000FDF79EFF74A0FDF79BFF7CA0FDF798FF6B
:103B800082A0FDF795FF8BA0FDF792FF90A0FDF7B7
:103B90008FFF9CA0FDF78CFFA6A0FDF789FFB1A0C9
:103BA000FDF786FFBCA0FDF783FFC6A0FDF780FFF1
:103BB000CEA0FDF77DFFD7A0FDF77AFFE3A0FDF7CC
:103BC00077FF14A0FDF774FFED48007818B1EDA061
:103BD000FDF76EFF02E0F1A0FDF76AFFF6480078FE
:103BE00018B1F6A0FDF764FFFDE1F9E100C800405F
:103BF0000033040000400C402020207E7E2073799A
:103C00007374656D20696E697469616C697A656445
:103C1000207E7E200A0D00000A0A0A0A0A0A0A0A01
:103C20000A0A0D0020202020204E657074756E65F4
:103C300020426F6172642046756E6374696F6E61B5
:103C40006C20546573742020765F302E302E332024
:103C50000A0D0000202020202D2D2D2D2D2D2D2D65
:103C60002D2D2D2D2D2D2D2D2D2D2D2D2D2D2D2D84
:103C70002D2D2D2D2D2D2D2D2D2D2D2D2D2D2D2D74
:103C80002D2D2D200A0A0D00202020202027762708
:103C90002020746F67676C6520564552424F53452C
:103CA000206F7574707574200A0D0000202020208C
:103CB000202762272020466C6173683A2052656194
:103CC000642043686970204944200A0D0000000008
:103CD00020202020202763272020466C6173683A2B
:103CE00020577269746520262052656164200A0D90
:103CF00000000000202020202027642720204D6F76
:103D000064656D3A20506F776572205570202620CB
:103D10005265616420494D4549200A0D00000000AC
:103D2000202020202027652720204D6F64656D3AD4
:103D30002053494D20436F6D6D756E6963617469E1
:103D40006F6E200A0D00000020202020202766270B
:103D500020204D6F64656D3A204E6574776F726BED
:103D600020416363657373200A0D0000202020202A
:103D70002027672720204D6F64656D3A204D616BC9
:103D80006520612043616C6C200A0D0020202020FA
:103D9000202769272020424C453A20526561642043
:103DA0004465766963652041646472657373200AB3
:103DB0000D0000002020202020276A272020424CD0
:103DC000453A204C6F6F706261636B200A0D0000F2
:103DD0002020202020276B272020424C453A2050CD
:103DE00061697220284164766572746973652F4336
:103DF0006F6E6E6563742F446973636F7665727955
:103E0000290A0D002020202020276C272020424C4A
:103E1000453A20436F6D6D756E6963617465202D41
:103E2000205065726970686572616C2052656164CA
:103E30000A0D00002020202020276D272020424C42
:103E4000453A20436F6D6D756E6963617465202D11
:103E5000205065726970686572616C205772697470
:103E6000650A0D00200A0D2020202020204D7573AA
:103E70007420646973636F6E6E6563742064656239
:103E8000756767657220746F20656E746572204572
:103E90004D32200A0D00000020202020202773270B
:103EA0002020454D323A20536C656570204D6F647B
:103EB0006520666F72203135205365636F6E6473C1
:103EC0000A0D000020202020202774272020454DA7
:103ED000323A20536C656570204D6F646520286E02
:103EE0006F2065786974290A0D000000200A0D20F2
:103EF0002020202020466F7220526164696F204587
:103F00006D697373696F6E732054657374696E673E
:103F1000200A0D0020202020202779272020424C35
:103F2000453A20546F67676C6520426C7565746F05
:103F30006F746820526164696F20506F77657220DA
:103F40004F6E2F4F6666200A0D00000020202020B3
:103F500020277A2720204D6F64656D3A20546F67C3
:103F6000676C652043656C6C20526164696F2050FA
:103F70006F776572204F6E2F4F6666200A0D000026
:103F80003E03002020202020566572626F7365205A
:103F90004D6F64653A204F4E200A0D0020202020EE
:103FA000566572626F7365204D6F64653A204F46A7
:103FB00046200A0D000000003F03002020202020A2
:103FC000426C7565746F6F746820526164696F200C
:103FD000506F77657265643A204F4E200A0D0000DD
:103FE00059A0FDF765FD6148007818B160A0FDF7A4
:103FF0005FFD02E066A0FDF75BFDAFF2DC30FDF790
:1040000057FD6420FDF792F909E06948007801281E
:1040100005D16848017868480078FFF717F8FDF780
:10402000E3FC0028F1D0FDF7BFFC04460025A4F115
:104030006200192860D2DFE800F014181C232A312E
:104040005F383C4044485F5F5F5F5F4C535F0D5F8C
:104050005F575B005748007880F0010055490870B1
:1040600071E000F06FFE05464EE000F0D3FF05461C
:104070004AE001F051FD054600203C49087043E04C
:1040800001F05EFF05460020384908703CE001F071
:1040900017FE054600203549087035E001F0D6FAD4
:1040A00005460020314908702EE000F0FBFA054675
:1040B0002AE000F0D5FB054626E000F009FD0546A4
:1040C00022E000F0EDF805461EE000F0C1F90546DB
:1040D0001AE002F0D9F8054600202449087013E0E0
:1040E00002F004F805460FE002F0DAF905460BE0AD
:1040F00002F064FA054607E030A0FDF7D9FC40F273
:10410000DC50FDF713F91EE000BF1DB134A0FDF730
:10411000CFFC02E038A0FDF7CBFC3DA0FDF7C8FCCA
:1041200009E023480078012805D122480178224877
:104130000078FEF78BFFFDF757FC0028F1D0FDF764
:1041400033FC044600BFFAE420202020426C756551
:10415000746F6F746820526164696F20506F776567
:104160007265643A204F4646200A0D004003002045
:104170002020202043656C6C204D6F64656D2050BD
:104180006F77657265643A204F4E200A0D0000007B
:104190002020202043656C6C204D6F64656D20509D
:1041A0006F77657265643A204F4646200A0D00001D
:1041B0003F0300203E030020410300202020696EC1
:1041C00076616C6964206368617261637465722CE6
:1041D0002074727920616761696E0A0D0000000029
:1041E0002020207465737420726573756C743A2096
:1041F00050415353200A0D00202020746573742011
:10420000726573756C743A204641494C200A0D0062
:104210000A0A0D20707265737320616E79206B65D8
:104220007920746F20636F6E74696E7565200A0D56
:104230000000000000BF72B605480068401C04D0B2
:1042400003480068401C0249086000BF7047000036
:104250004C03002070B504460D4625B1012D09D050
:10426000022D15D10DE00023012221460220FCF78A
:1042700081FE0DE00023022221461046FCF77AFE63
:1042800006E00023042221460220FCF773FE00BF53
:1042900000BF70BD10B504462046FEF7B7FC10BD48
:1042A0000EB516A207CA8DE8070017A0FDF700FC9F
:1042B0004FF47A70FDF73AF81DA0FDF7F9FB2BA03B
:1042C000FDF7F6FB38A0FDF7F3FB41A0FDF7F0FB8F
:1042D0004448FDF7EDFB44A0FDF7EAFB4148DC3024
:1042E000FDF7E6FB4DA0FDF7E3FB5248FDF7E0FBD1
:1042F00051A0FDF7DDFB01200EBD000068656C6C70
:104300006F20776F726C64000A0D2020457865631A
:104310007574696E6720424C452054657374202D76
:1043200020436F6D6D756E6963617465200A0D00C1
:104330002020497420697320617373756D65642052
:1043400074686520424C4520726164696F2069641D
:104350002063757272656E746C7920207061697269
:1043600065642077697468200A0D000020204E6F74
:10437000726469632773204D617374657220436FA3
:104380006E74726F6C2050616E656C20766961206E
:10439000746865204D617374657220456D756C613C
:1043A000746F72200A0D00002020446576696365F1
:1043B0002028504341313030303029206F6E206149
:1043C0002055534220706F7274200A0A0D000000BD
:1043D0002020494E535452554354494F4E533A208E
:1043E0000A0A0D009C6700002020686967686C69F4
:1043F0006768742022554152542054582C2056612D
:104400006C75652220627920636C69636B696E67E5
:10441000206F6E2069742E200A0D0000202070721B
:1044200065737320225772697465222E200A0A0D63
:1044300000000000BC68000020207465726D696E89
:10444000616C2077696E646F772E090A0A0A0D0085
:1044500010B586B024A0FDF72BFB2FA0FDF728FB9D
:104460003CA0FDF725FB4AA0FDF722FB52A0FDF77B
:104470001FFB5648FDF71CFB55A0FDF719FB5348E1
:104480004430FDF715FB51488C30FDF711FB5EA061
:10449000FDF70EFB6CA0FDF70BFB73480088401C7A
:1044A00080B271490880024670A101A8FDF772FB35
:1044B00001A8FBF771FEC4B2214601A8FEF75AF825
:1044C00078B16FA0FDF7F4FA01A8FDF7F1FA6DA03D
:1044D000FDF7EEFA4FF47A70FCF728FF012006B0E2
:1044E00010BD0020FBE700000A0D20204578656321
:1044F0007574696E6720424C452054657374202D95
:1045000020436F6D6D756E696361746520577269C4
:104510007465200A0A0D0000202049742069732068
:10452000617373756D65642074686520424C452025
:10453000726164696F2069642063757272656E745C
:104540006C792020706169726564207769746820D5
:104550000A0D000020204E6F726469632773204D9E
:10456000617374657220436F6E74726F6C2050615A
:104570006E656C2076696120746865204D61737486
:10458000657220456D756C61746F72200A0D0000B4
:1045900020204465766963652028504341313030DE
:1045A000303029206F6E20612055534220706F7289
:1045B00074200A0A0D0000002020494E5354525521
:1045C0004354494F4E533A200A0A0D009C6700009D
:1045D0002020686967686C696768742022554152B9
:1045E000542052582C2056616C7565222062792027
:1045F000636C69636B696E67206F6E2069742074E9
:1046000068656E0A0D0000002020546F20766965F1
:10461000772041534349492074657874207261744E
:10462000686572207468656E206E756D6572696369
:10463000206571756976616C656E74732C20636892
:1046400065636B200A0D0000202022446973706CA2
:10465000617920617320555446382220626F782E8C
:10466000200A0A0A0D00000042030020424C4520A7
:10467000777269746520636F756E743A20256400E3
:10468000202022002220537472696E672073656EA9
:104690007420746F20424C45204D61737465722004
:1046A0000A0D000070B5002400253BA0FDF700FABC
:1046B0004FF47A70FCF73AFE01204349087000205D
:1046C000424908704248007810B142A0FDF7F0F965
:1046D0004FF47A70FCF72AFEFDF73EFFFDF71AFF54
:1046E00005E03B48017839480078FEF7AFFCFDF75C
:1046F0001BFF0028F5D03648007810B13FA0FDF729
:10470000D7F94FF47A70FCF711FE3148007810B1F8
:1047100041A0FDF7CDF9FDF702FF08B9002070BDFB
:10472000002400250CE02A48017828480078FEF78C
:104730008DFC04462846691CCDB2642800DD04E0E7
:1047400004F47F40B0F5206FEDD100BF04F47F404A
:10475000B0F5206F0FD0FDF7F1FE1D48007810B1C5
:1047600037A0FDF7A5F94FF47A70FCF7DFFD0020C4
:1047700015490870D3E7FDF7E1FE1548007810B140
:104780002FA0FDF795F94FF47A70FCF7CFFD0020CC
:104790000D4908700120C2E70A0D202045786563A5
:1047A0007574696E6720424C452054657374202DE2
:1047B00020526561642044657669636520416464C4
:1047C00072657373200A0D003F030020410300202F
:1047D0003E0300200A0D202020202020456E61622B
:1047E0006C65202620496E697469616C697A652060
:1047F000424C4520526164696F0A0D002020202040
:104800002020526164696F20496E697469616C6926
:104810007A65640A0D0000002020202020204765D2
:1048200074202620446973706C6179204465766930
:10483000636520416464726573730A0D00000000B3
:10484000202020202020424C4520526164696F20A6
:10485000506F7765726564204F6666200A0D000010
:1048600070B5002400255FA0FDF722F9FCF7B0FE2B
:104870004FF47A70FCF75AFD01206449087000205B
:10488000634908706348007810B163A0FDF710F920
:104890004FF47A70FCF74AFDFDF750FE4FF4FA60D2
:1048A000FCF744FDFDF758FEFDF734FE05E05948DE
:1048B000017857480078FEF7C9FBFDF735FE002860
:1048C000F5D05448007810B15DA0FDF7F1F84FF431
:1048D0007A70FCF72BFD4F48007810B15FA0FDF710
:1048E000E7F80220FEF7FCFF08B9002070BD0024A5
:1048F00000250EE04748017845480078FEF7A6FB02
:1049000004462846691C8DB241F28831884200DD98
:1049100004E004F47F00B0F5803FEBD100BF04F465
:104920007F00B0F5803F0FD0FDF708FE39480078D2
:1049300010B152A0FDF7BCF84FF47A70FCF7F6FC0A
:10494000002032490870D1E73248007810B153A0F6
:10495000FDF7AEF8002400250EE02E4801782C4823
:104960000078FEF773FB04462846691C8DB241F2BD
:104970008831884200DD04E004F07F40B0F1024F4E
:10498000EBD100BF04F07F40B0F1024F12D0FF2006
:10499000FEF7A6FFFDF7D2FD1E48007810B137A044
:1049A000FDF786F84FF47A70FCF7C0FC0020174939
:1049B00008709BE71748007810B13EA0FDF778F823
:1049C000FDF7BCFD1348007810B12CA0FDF770F87E
:1049D0004FF47A70FCF7AAFC00200C490870012003
:1049E00084E700000A0D2020457865637574696EC0
:1049F0006720424C452054657374202D204C6F6F06
:104A0000706261636B200A0D000000003F0300200C
:104A1000410300203E0300200A0D202020202020FA
:104A2000456E61626C65202620496E697469616C0F
:104A3000697A6520424C4520526164696F0A0D0015
:104A4000202020202020526164696F20496E697403
:104A500069616C697A65640A0D00000020202020DD
:104A60002020496E697469617465204C6F6F7062B3
:104A700061636B2054657374200A0D002020202090
:104A80002020424C4520526164696F20506F776549
:104A9000726564204F6666200A0D0000656E7465BD
:104AA0007265642054455354206D6F6465200D0A6F
:104AB000000000004C6F6F706261636B207465735F
:104AC0007420636F6D706C65746564200D0A00005E
:104AD00010B529A0FCF7ECFFFCF77AFD4FF47A70D3
:104AE000FCF724FC01202D4908702D4908702DA0E9
:104AF000FCF7DEFF4FF47A70FCF718FCFDF72CFD95
:104B0000FDF708FD4FF47A70FCF710FC05E02F4824
:104B1000017823480078FEF799FAFDF705FD002893
:104B2000F5D02A4801781E480078FEF78FFA28A0B1
:104B3000FCF7BEFF2EA0FCF7BBFF32A0FCF7B8FFCE
:104B40003EA0FCF7B5FF4CA0FCF7B2FF54A0FCF769
:104B5000AFFF6248FCF7ACFF61A0FCF7A9FF5F481C
:104B60004830FCF7A5FF6DA0FCF7A2FF4FF47A7068
:104B7000FCF7DCFB012010BD0A0D202045786563A1
:104B80007574696E6720424C452054657374202DFE
:104B90002050616972200A0D000000003F030020D0
:104BA000410300200A0D202020202020456E616254
:104BB0006C65202620496E697469616C697A65208C
:104BC000424C4520526164696F0A0D003E0300208B
:104BD000202020202020424C4520526164696F2013
:104BE0004164766572746973696E670A0A0D000024
:104BF0002020494E535452554354494F4E533A2066
:104C00000A0A0D00202049742069732061737375AE
:104C10006D65642074686520424C4520726164694A
:104C20006F2077696C6C20626520706169726564C1
:104C30002077697468200A0D0000000020204E6F64
:104C4000726469632773204D617374657220436FCA
:104C50006E74726F6C2050616E656C207669612095
:104C6000746865204D617374657220456D756C6163
:104C7000746F72200A0D0000202044657669636518
:104C80002028504341313030303029206F6E206170
:104C90002055534220706F7274200A0A0D000000E4
:104CA00020204F6E20746865204D617374657220FA
:104CB000436F6E74726F6C2050616E656C20707201
:104CC0006573733A2022537461727420446973636C
:104CD0006F76657279222E200A0D000000690000AF
:104CE0002020436C69636B206F6E207468652064BC
:104CF0006576696365206164647265737320616EB3
:104D000064207072657373202253656C6563742030
:104D1000446576696365222E0A0D000020205468E0
:104D20006520424C4520726164696F732061726531
:104D3000206E6F7720706169726564200A0A0A0D1F
:104D40000000000010B586B064A0FCF7B1FEFCF7CF
:104D500019FC6F48006840F480306D4908606C4869
:104D60005430006840F00F006949543108604FF436
:104D70007A70FCF7DBFA6748007810B166A0FCF7A0
:104D800097FEFCF7A2F8AA22142101A8FBF7D4F998
:104D90009F208DF8000001216846FCF7C3F803212D
:104DA00001A8FCF7A9F8142101A8FCF7A5F85948B7
:104DB0000078002849D060A0FCF77AFE9DF8042016
:104DC00067A16F48FCF7E6FE6D48FCF771FE9DF8A1
:104DD00005206CA16A48FCF7DDFE6948FCF768FE17
:104DE0009DF806206EA16648FCF7D4FE6448FCF7E7
:104DF0005FFE9DF8072072A16148FCF7CBFE60487A
:104E0000FCF756FE75A15E48FCF7C4FE5C48FCF753
:104E10004FFE04240DE001A8025D75A15848FCF77F
:104E2000B9FE5748FCF744FE0A20FCF77FFA601CE5
:104E300084B2142CEFDB49A15148FCF7ABFE50487B
:104E4000FCF736FE6BA0FCF733FEFCF735F89DF857
:104E5000040020283FD19DF8050071283BD19DF822
:104E60000600152837D19DF80700102833D19DF88A
:104E7000080078BB9DF8090060BB9DF80A0048BB9C
:104E80009DF80B0030BB9DF80C0018BB9DF80D0081
:104E900000BB9DF80E00E8B99DF80F00D0B99DF851
:104EA0001000B8B99DF81100A0B99DF8120088B99A
:104EB0009DF8130070B99DF8140058B99DF81500BD
:104EC00040B99DF8160028B99DF8170010B90120C7
:104ED00006B010BDFFE70020FAE700000A0D202011
:104EE000457865637574696E6720466C61736820E8
:104EF0004D656D6F72792054657374202D20526555
:104F000061642043686970204944200A0D00000054
:104F100000C800403E0300200A0D20202020506FD2
:104F200077657220557020466C617368204D656D01
:104F30006F72790A0D000000202020205265616404
:104F4000204964656E74696669636174696F6E2077
:104F5000496E666F726D6174696F6E3A200A0D005A
:104F60002020202020204D616E756661637475726B
:104F700065722049443A2030782532780A0D0000C5
:104F80000C0C00202020202020204D656D6F7279B0
:104F900020547970653A2030782532780A0D000067
:104FA0002020202020204D656D6F72792043617094
:104FB00061636974793A2030782532780A0D0000EF
:104FC000202020202020434644204C656E677468D2
:104FD0003A2030782532780A0D0000002020202069
:104FE000202043464420436F6E74656E743A20005F
:104FF00025642C0020202020506F77657220446F9C
:10500000776E20466C617368204D656D6F72790A0A
:105010000A0D000010B588B0F3A0FCF749FDFCF7BD
:10502000B1FAFE48006840F48030FC490860FB4853
:105030005430006840F00F00F849543108604FF4D4
:105040007A70FCF773F9F648007810B1F5A0FCF718
:105050002FFDFBF73AFFF248007810B1FAA0FCF7F9
:1050600027FD3220FCF762F9FBF77BFF0220FCF7FB
:105070005DF920208DF8080000208DF8090002203D
:105080008DF80A0000208DF80B00042102A8FBF720
:1050900049FFFCF757F901900220FCF747F9FBF7AD
:1050A00057FF0220FCF742F905208DF80800012186
:1050B00002A8FBF737FF042103A8FBF71DFF9DF8AB
:1050C0000F0000F001008DF80C0010E00320FCF749
:1050D0002DF9012102A8FBF725FF022103A8FBF708
:1050E0000BFF9DF80D0000F001008DF80C009DF8FD
:1050F0000C000028EAD1FCF725F90199401A00902C
:10510000C748007810B1D9A0FCF7D2FC0220FCF708
:105110000DF9C322142103A8FBF70EF803208DF824
:10512000080000208DF8090002208DF80A000020F8
:105130008DF80B00042102A8FBF7F4FE042103A85C
:10514000FBF7DAFE102103A8FBF7D6FE3220FCF7AE
:10515000EDF8B3480078F0B1CFA1D548FCF71AFDBF
:10516000D348FCF7A5FC00240AE003A8025DD1A106
:10517000CF48FCF70FFDCE48FCF79AFC601CC4B288
:105180000F2CF2DB9DF81B20CBA1C948FCF702FDD8
:10519000C748FCF78DFC00240EE003A8005DFF2843
:1051A00008D09F48007810B1C5A0FCF781FC002012
:1051B00008B010BD601CC4B2102CEEDB984800781B
:1051C00010B1C948FCF774FC002403E003A804559F
:1051D000601CC4B2102CF9DBFBF7C3FE0020019069
:1051E00004E0019800900198401C01900198322839
:1051F000F7D302208DF8080000208DF80900022066
:105200008DF80A0000208DF80B00042102A8FBF79E
:1052100089FE102103A8FBF785FE0020019004E021
:10522000019800900198401C019001986428F7D3E0
:10523000FBF78EFE0020019004E001980090019899
:10524000401C019001983228F7D305208DF8080002
:10525000012102A8FBF766FE022103A8FBF74CFE22
:105260009DF80C0000F001008DF80C000DE001210C
:1052700002A8FBF757FE012103A8FBF73DFE9DF8AE
:105280000C0000F001008DF80C009DF80C000028C7
:10529000EDD14FF4FA70FCF749F86148007810B18D
:1052A00092A0FCF705FCFBF707FE5D48007810B103
:1052B00097A0FCF7FDFB4FF4FA60FCF737F858486D
:1052C000007810B198A0FCF7F3FBFBF7FEFD544803
:1052D000007810B19CA0FCF7EBFBAA22142103A8D4
:1052E000FAF72AFF03208DF8080000208DF8090046
:1052F00002208DF80A0000208DF80B00042102A87E
:10530000FBF710FE042103A8FBF7F6FD102103A80C
:10531000FBF7F2FD42480078F0B15FA16448FCF76A
:1053200039FC6348FCF7C4FB00240AE003A8025DD3
:1053300060A15F48FCF72EFC5D48FCF7B9FB601CE0
:10534000C4B20F2CF2DB9DF81B205BA15848FCF780
:1053500021FC5748FCF7ACFB002417E003A8005DD4
:10536000A04211D02E48007860B19DF80D30224641
:105370007DA14F48FCF70EFC4D48FCF799FB32200D
:10538000FBF7D4FF002013E7601CC4B2102CE5DB50
:105390002348007810B17EA0FCF78AFB20480078F3
:1053A00010B184A0FCF784FB3220FBF7BFFFFBF7B2
:1053B000D8FD3220FBF7BAFF20208DF8080000202E
:1053C0008DF8090002208DF80A0000208DF80B00EE
:1053D000042102A8FBF7A6FD0220FBF7A7FFFBF7BD
:1053E000B7FD0220F2E000000A0D20204578656339
:1053F0007574696E6720466C617368204D656D6FCA
:1054000072792054657374202D2057726974652059
:105410002F2052656164200A0D00000000C8004082
:105420003E0300200A0D20202020202020506F77EE
:10543000657220557020466C617368204D656D6FF4
:1054400072790A0D00000000202020202020204535
:105450007865637574696E672053756273656374EC
:105460006F722045726173650A0D000020202020B4
:10547000202020537562736563746F7220457261DA
:10548000736520436F6D6D616E6420436F6D706C4A
:10549000657465640A0D000020202020202020462D
:1054A0006C61736820636F6E74656E74733A20006C
:1054B0000C0C002025642C0025640A0D000000005F
:1054C000202020202020204661696C7572653A20DA
:1054D000537562736563746F72204E4F542045722A
:1054E000617365640A0D000090690000202020208F
:1054F000202020506F77657220446F776E20466CB5
:10550000617368204D656D6F72790A0D00000000AF
:1055100020202020202020576169742032205365EC
:10552000636F6E64730A0D0020202020202020501D
:105530006F77657220557020466C617368204D65E9
:105540006D6F72790A0D000020202020202020524B
:1055500065616420466C61736820436F6E74656E8C
:1055600074730A0D000000004661696C7572653A3B
:105570002065787065637465643D2025642C206126
:10558000637475616C3D202564200A0D00000000E5
:1055900020202020202020466C61736820636F6EDD
:1055A00074656E74732061726520636F72726563D7
:1055B000740A0D002020202020202045726173698C
:1055C0006E6720466C6173680A0D0000FBF7AEFE43
:1055D000FBF784FC0E49087006E03220FBF7A6FEBC
:1055E000FBF77CFC0A490870094800780028F4D1D0
:1055F0000848007810B108A0FCF75AFA054800786E
:1056000010B10BA0FCF754FAFBF756FC0120CFE5D4
:10561000460300203E03002020202020202020459B
:105620007261736520436F6D706C6574650A0D005F
:1056300020202020202020506F77657220446F7733
:105640006E20466C6173680A0D00000030B5D1B061
:105650000025002479A0FCF72BFA4FF47A70FBF7B1
:1056600065FE8148007810B180A0FCF721FAFDF7B3
:10567000D7F80A257C48007838B12A4682A18D489F
:10568000FCF788FA8B48FCF713FA10E04FF47A70B5
:10569000FBF74CFE681EC5B27348007838B12A4645
:1056A00085A18448FCF776FA8248FCF701FA002DC0
:1056B000ECDC6D48007810B182A0FCF7F9F9002508
:1056C0006948007838B12A467FA17A48FCF762FA27
:1056D0007848FCF7EDF920E04FF47A70FBF726FEEE
:1056E000681CC5B21E2D0DD15F48007828B180A07E
:1056F000FCF7DEF986A0FCF7DBF9FDF778F800206F
:1057000051B030BD5848007838B12A466AA169487E
:10571000FCF740FA6748FCF7CBF9FCF7B3FF002829
:10572000DAD082A0FCF7C4F94F48007870B141F29A
:105730008830FA2302AA62A1009085A0FCF7F2FF4C
:1057400002A8FCF7B5F985A0FCF7B2F94648007845
:1057500010B183A0FCF7ACF94348007810B189A0E0
:10576000FCF7A6F94FF47A728EA18FA0FCF7B6FF72
:1057700004461CB9FDF73BF80020C1E73A48007821
:1057800010B193A0FCF794F94FF47A7285A19CA014
:10579000FCF7A4FF04461CB9FDF729F80020AFE789
:1057A0003148007810B19DA0FCF782F941F28832AF
:1057B0007CA1A2A0FCF792FF04462B48007870B1B0
:1057C00041F28830FA2302AA3DA1009060A0FCF7C4
:1057D000A9FF02A8FCF76CF960A0FCF769F91CB9F5
:1057E000FDF705F800208BE71F48007810B197A05F
:1057F000FCF75EF9A1A141A8FCF7CCF942F21072C6
:10580000A9A141A8FCF76AFF04465CB1A8A0FCF777
:105810004FF91548007810B1AFA0FCF749F9FCF733
:105820001BFF0446FCF7E3FF0F480078012803D173
:1058300014B9B1A0FCF73CF9204661E70A0D20201D
:10584000457865637574696E67204D6F64656D207A
:1058500054657374202D204D616B65206120436178
:105860006C6C200A0D0000003E0300200A0D202071
:1058700020202020506F776572205570204D6F6476
:10588000656D0A0D000000002020202020205761B7
:10589000697420666F72204D6F64656D20746F208F
:1058A000426F6F742028736563292025326420209D
:1058B000000000000C0C00200808080825326420B5
:1058C000200000000A0D0000202020202020576129
:1058D000697420666F7220526567697374726174AF
:1058E000696F6E20287365632920253264202000AB
:1058F0000A0D202020202020526567697374726190
:1059000074696F6E2054696D656F75740A0D0000BF
:10591000202020202020506F77657220446F776E02
:10592000204D6F64656D0A0D000000000A0D2020F7
:1059300020202020526567697374726174696F6EEC
:10594000205375636365737366756C0A0D00000000
:1059500041542B434744434F4E543F000A0A0D0025
:10596000202020202020536574205570204461742D
:105970006120436F6E6E656374696F6E3A200A0D25
:10598000000000002020202020202020446566699F
:105990006E652050445020436F6E74657874200A01
:1059A0000D0000004F4B000041542B434744434F30
:1059B0004E543D322C224950222C22767A77696E41
:1059C0007465726E6574222C22222C302C300000FB
:1059D000202020202020202053657420536F636BEB
:1059E000657420436F6E66696775726174696F6E66
:1059F00020506172616D6574657273200A0D00003C
:105A0000415423534346473D332C322C3330302C02
:105A100039302C3630302C3530000000202020204A
:105A200020202020416374697661746520504450C1
:105A300020436F6E74657874200A0D00415423531F
:105A4000474143543D322C310000000020202020EB
:105A5000202020204F70656E2052656D6F74652088
:105A6000436F6E6E656374696F6E20766961205353
:105A70006F636B6574200A0D00000000617423736E
:105A8000643D332C302C31303531302C226D6F6435
:105A9000756C65732E74656C69742E636F6D222C42
:105AA0003235352C312C3000434F4E4E4543540097
:105AB00020202020202020204461746120436F6E2C
:105AC0006E656374696F6E2045737461626C69738F
:105AD000686564200A0D000020202020202020205E
:105AE00044726F7070696E6720436F6E6E65637489
:105AF000696F6E200A0D0000202020202020436FB7
:105B00006E6E656374696F6E2044726F70204661BB
:105B1000696C7572650A0D0030B5A1B000250024CE
:105B20002BA0FBF7C5FF4FF47A70FBF7FFFB35485E
:105B3000007810B134A0FBF7BBFFFCF771FE0A241C
:105B40003048007838B1224636A14148FCF722F8A7
:105B50003F48FBF7ADFF10E04FF47A70FBF7E6FB30
:105B6000601EC4B22748007838B1224639A13848AF
:105B7000FCF710F83648FBF79BFF002CECDC2148C3
:105B8000007810B11EA0FBF793FF1E48007810B1FB
:105B900033A0FBF78DFF40F6B830802301AA38A16F
:105BA000009039A0FCF7BEFD054601AA38A128489F
:105BB000FBF7F0FF2648FBF77BFF1248007810B197
:105BC00038A0FBF775FFFCF712FE284621B030BD68
:105BD0000A0D2020457865637574696E67204D6FE6
:105BE00064656D2054657374202D20506F77657245
:105BF000205570202F205265616420494D45492071
:105C00000A0D00003E0300200A0D20202020202045
:105C1000506F776572205570204D6F64656D0A0D69
:105C20000000000020202020202057616974206699
:105C30006F72204D6F64656D20746F20426F6F74BA
:105C4000202873656329202532642020000000008D
:105C50000C0C0020080808082532642020000000F1
:105C60002020202020205175657279204D6F6465B9
:105C70006D20666F7220494D45490A0D00000000F5
:105C80004347534E3A0000004154234347534E00CC
:105C9000202020202020494D45493A2025730A0D17
:105CA00000000000202020202020506F7765722007
:105CB000446F776E204D6F64656D0A0D0000000023
:105CC00030B5A1B0002449A0FBF7F2FE4FF47A7082
:105CD000FBF72CFB5148007810B151A0FBF7E8FE10
:105CE000FCF79EFD0A244D48007838B1224653A1A6
:105CF0005D48FBF74FFF5C48FBF7DAFE10E04FF41E
:105D00007A70FBF713FB601EC4B24448007838B1C8
:105D1000224656A15448FBF73DFF5348FBF7C8FE07
:105D2000002CECDC3D48007810B153A0FBF7C0FE1E
:105D300000243A48007838B1224650A14A48FBF77F
:105D400029FF4948FBF7B4FE20E04FF47A70FBF7D7
:105D5000EDFA601CC4B23C2C0DD13048007828B15B
:105D600050A0FBF7A5FE57A0FBF7A2FEFCF73FFDF6
:105D7000002021B030BD2948007838B122463BA12F
:105D80003948FBF707FF3848FBF792FEFCF77AFC2F
:105D90000028DAD052A0FBF78BFE2048007810B123
:105DA00058A0FBF785FE40F6B830802301AA5DA11C
:105DB00000905EA0FCF7B6FC5AA101A8FAF7DAF948
:105DC00005461648007838B12A465AA12648FBF7FE
:105DD000E1FE2548FBF76CFE1048007810B139A0B1
:105DE000FBF766FEFCF703FD0120C2E70A0D202049
:105DF000457865637574696E67204D6F64656D20C5
:105E000054657374202D204E6574776F726B20413A
:105E10006363657373200A0D000000003E030020D9
:105E20000A0D202020202020506F776572205570A9
:105E3000204D6F64656D0A0D0000000020202020B9
:105E400020205761697420666F72204D6F64656D04
:105E500020746F20426F6F7420287365632920259A
:105E600032642020000000000C0C00200808080804
:105E700025326420200000000A0D00002020202090
:105E800020205761697420666F72205265676973BC
:105E900074726174696F6E202873656329202532DE
:105EA000642020000A0D20202020202052656769F0
:105EB0007374726174696F6E2054696D656F757467
:105EC0000A0D0000202020202020506F77657220CE
:105ED000446F776E204D6F64656D0A0D0000000001
:105EE0000A0D20202020202052656769737472619A
:105EF00074696F6E205375636365737366756C0A9E
:105F00000D0000002020202020205175657279208E
:105F1000546F77657220666F7220525353490A0D91
:105F2000000000004353513A0000000041542B434D
:105F30005351000020202020202025730000000065
:105F400030B5A1B0002500242BA0FBF7B1FD4FF424
:105F50007A70FBF7EBF93448007810B133A0FBF707
:105F6000A7FDFCF75DFC0A242F48007838B12246D3
:105F700035A14048FBF70EFE3E48FBF799FD10E0C7
:105F80004FF47A70FBF7D2F9601EC4B2264800784D
:105F900038B1224638A13748FBF7FCFD3548FBF7FE
:105FA00087FD002CECDC2048007810B135A0FBF711
:105FB0007FFD1D48007810B133A0FBF779FD40F656
:105FC000B830802301AA39A100903AA0FCF7AAFBBF
:105FD000054601AA39A12748FBF7DCFD2548FBF758
:105FE00067FD1148007810B139A0FBF761FDFCF79F
:105FF000FEFB284621B030BD0A0D202045786563A0
:106000007574696E67204D6F64656D205465737497
:10601000202D2053494D20436F6D6D756E6963616E
:1060200074696F6E200A0D003E0300200A0D2020C7
:1060300020202020506F776572205570204D6F64AE
:10604000656D0A0D000000002020202020205761EF
:10605000697420666F72204D6F64656D20746F20C7
:10606000426F6F74202873656329202532642020D5
:10607000000000000C0C00200808080825326420ED
:10608000200000000A0D0000202020202020517553
:10609000657279204D6F64656D2053494D20666FA0
:1060A0007220494D53490A0D0000000043494D49F3
:1060B0000000000041542343494D49002020202086
:1060C0002020494D53493A2025730A0D0000000055
:1060D0000A0D202020202020506F77657220446F09
:1060E000776E204D6F64656D0A0D000010B529A014
:1060F000FBF7DEFC2EA0FBF7DBFC35A0FBF7D8FCA2
:106100003BA0FBF7D5FC4FF4FA60FBF70FF93FA07B
:10611000FBF7CEFCFCF710FC044600BFFCF70CFCC0
:10612000A042FBD044A0FBF7C3FC6420FBF7FEF8C1
:106130004FF6FF704C49486101464B488163C16589
:106140004A4841614A4801604A4801604FF00000F6
:1061500045494860014644488162C1640167464838
:106160000160464801604FF000003F4988600146E9
:106170003D48C16201654167414801604148016095
:106180004FF00000FAF7F6FF0120FAF7EDFD0020CE
:1061900010BD00000A0D2020456E746572696E679F
:1061A00020536C656570204D6F64650A0D0000001A
:1061B0000A0D202020204379636C6520706F77657D
:1061C0007220746F207265636F7665720A0D00002D
:1061D000202020204750494F2077696C6C20626551
:1061E000207475726E6564206F66660A0D0000008B
:1061F00020202020496E746572727570747320645B
:10620000697361626C65640A0D0000000A0D20204C
:10621000202020205741495421202D2053796E639E
:1062200068726F6E697A696E672077697468205248
:1062300054430A0D000000000A0D202020202020D9
:10624000456E746572696E6720454D32202D204D74
:106250006561737572652043757272656E74204E48
:106260006F77200A0D000000006000406C60004065
:10627000A4600040C860004094600040B8600040E6
:1062800098600040BC600040F0B593B00027002546
:1062900000264AA0FBF70CFC4FF47A70FBF746F897
:1062A00000241CE004EBC400524901EB800040686C
:1062B0000DA941F8240004EBC4004E4901EB800015
:1062C000806807A941F8240004EBC400494901EBA8
:1062D0008000C06801A941F82400601C84B2062C2B
:1062E000E0DB45A0FBF7E4FBFCF726FB054600BF1F
:1062F000FCF722FBA842FBD049A0FBF7D9FB6420A6
:10630000FBF714F800203B494860002139488162BE
:10631000C16401674E4801604E4801604FF00000C3
:106320003449886001463348C162016541674A4883
:1063300001604A4801604FF6FF702E4948610146EE
:106340002C488163C1654648416146480160464822
:1063500001604FF00100FAF707FDFCF7EDFA064681
:1063600000241AE001A850F8240004EBC401214ADB
:1063700002EB8101C8600DA850F8240004EBC401B1
:1063800002EB8101486007A850F8240004EBC40127
:1063900002EB81018860601C84B2062CE2DB33A032
:1063A000FBF786FBFCF7CEFAFBF7FEFA681C864289
:1063B00002D9012013B0F0BD0020FBE70A0D202018
:1063C000457865637574696E6720536C65657020E8
:1063D0004D6F64652054657374202D20454D322027
:1063E000666F72203135205365636F6E64730A0DDA
:1063F00000000000006000400A0D20202020202026
:1064000057414954202D2053796E6368726F6E692D
:106410007A696E672077697468205254430A0D00C8
:106420000A0D202020202020456E746572696E6759
:1064300020454D32202D204D6561737572652043D6
:10644000757272656E74204E6F77210A0D00000020
:1064500094600040B860004098600040BC6000401C
:106460006C600040A4600040C86000400A0D20201D
:106470002020202057616B65205570202D2052650B
:1064800073756D652046756C6C20506F7765722052
:106490004F7065726174696F6E200A0D0000000014
:1064A00070B5002400251FA0FBF702FB4FF47A70A3
:1064B000FAF73CFFFBF78CF824480078002820D13D
:1064C00001202249087022A0FBF7F2FA4FF47A70FB
:1064D000FAF72CFFFCF740F8FCF71CF805E026481B
:1064E000017826480078FCF7B1FDFCF71DF800287C
:1064F000F5D023A0FBF7DCFA4FF47A70FAF716FF19
:106500000DE0FCF71BF825A0FBF7D2FA4FF47A70E8
:10651000FAF70CFF00200D49087018490870012097
:1065200070BD00000A0D2020546F67676C65204223
:106530006C7565746F6F746820526164696F204F69
:106540004E2F4F4646200A0D000000003F0300205A
:106550000A0D202020202020456E61626C652026D7
:1065600020496E697469616C697A6520424C4520E6
:10657000526164696F0A0D003E0300204103002050
:10658000202020202020526164696F20496E6974A8
:1065900069616C697A65640A0D0000002020202082
:1065A0002020424C4520526164696F20506F77650E
:1065B000726564204F6666200A0D000030B5A1B0F8
:1065C0000025002428A0FBF773FA4FF47A70FAF73D
:1065D000ADFE2F48007800283BD12EA0FBF768FACB
:1065E000FCF71EF90A24224631A13C48FBF7D2FAF7
:1065F0003A48FBF75DFA0DE04FF47A70FAF796FE31
:10660000601EC4B2224636A13448FBF7C3FA3348B1
:10661000FBF74EFA002CEFDC34A0FBF749FA34A06C
:10662000FBF746FA40F6B830802301AA38A1009063
:1066300039A0FCF777F8054601AA39A12748FBF7EE
:10664000A9FA2648FBF734FA5DB101201049087019
:1066500007E038A0FBF72CFAFCF7C9F800200C493A
:106660000870012021B030BD0A0D2020546F6767EB
:106670006C652043656C6C204D6F64656D20506FB8
:10668000776572204F4E2F4F4646200A0D000000BE
:10669000400300200A0D202020202020506F776525
:1066A00072205570204D6F64656D0A0D000000006A
:1066B0002020202020205761697420666F72204DB1
:1066C0006F64656D20746F20426F6F74202873654E
:1066D0006329202532642020000000000C0C0020DB
:1066E0000808080825326420200000000A0D000078
:1066F0002020202020205175657279204D6F64651F
:106700006D20666F7220494D45490A0D000000005A
:106710004347534E3A0000004154234347534E0031
:10672000202020202020494D45493A2025730A0D7C
:1067300000000000202020202020506F776572206C
:10674000446F776E204D6F64656D0A0D0000000088
:106750004572726F723A204563686F206C6F6F707C
:106760002074657374206661696C65642E205665BB
:1067700072696679207468652053504920636F6E92
:106780006E6563746976697479206F6E20746865CC
:10679000205043422E0000000100010020204F6ED7
:1067A00020746865204D617374657220436F6E7448
:1067B000726F6C2050616E656C20696E2074686524
:1067C00020225365727669636520446973636F762E
:1067D000657279222077696E646F77200A0D000058
:1067E00020207072657373202252656164222E200E
:1067F0005468652076616C7565206F6E20746865DD
:10680000207465726D696E616C2077696E646F7754
:106810002028696E2071756F7465732062656C6FD6
:106820007729200A0D000000202073686F756C64C2
:1068300020617070656172206E65787420746F20BD
:1068400022554152542052582C2056616C75653A9D
:106850002220696E207468652053657276696365CD
:1068600020446973636F766572792077696E646F0F
:1068700077200A0D0000000020205468656E207407
:106880007970652065697468657220746578742014
:106890006F72206865782076616C75657320696E0B
:1068A00020746865202276616C75652220666965B2
:1068B0006C6420616E640A0D0000000020205468A2
:1068C0006520616C706861206E756D65726963200A
:1068D00076616C75657320796F7520747970656465
:1068E00020696E2073686F756C64206170707265CA
:1068F000617220696E20746865090A0D000000004D
:106900002020546865204E657074756E6520424C79
:106910004520726164696F206465766963652061F2
:106920006464726573732073686F756C6420617042
:1069300070656172206F6E20746865207363726584
:10694000656E2E200A0D000020204F6E20746865B1
:10695000206E6578742073637265656E2070726551
:1069600073733A2022436F6E6E656374222C207419
:1069700068656E2022446973636F76657220736563
:10698000727669636573222E200A0A0D00000000EA
:106990002020202020202057726974652028302C68
:1069A000312C322C332C342C352C362C372C382CE3
:1069B000392C31302C31312C31322C31332C3134D3
:1069C0002C31352920746F20466C617368200A0DC4
:1069D00000000000050000000000000000C20100EF
:1069E000000500000010000000000000050000008D
:1069F0000000000000C201000005000000100000BF
:106A000000000000050000000000000040420F00F0
:106A1000050100000000000000000000050000006B
:106A20000000000040420F000501000000000000CF
:106A30000000000001000000000000000F00000046
:106A40000008040C020A060E0109050D030B070FCE
:106A50000500000000000000802500000501000086
:106A60000000000000000000886A00000000002014
:106A70007003000086020000446C000070030020D8
:106A8000100E0000FC1B00001201120212011A80FD
:106A9000043A080811230706051903024207741F68
:106AA00006101202240401011A0639D92102131C0E
:106AB00019362F4060039001FF21C80838FFFF02FC
:106AC000580A051F41394BDD0506105455E984125B
:106AD000201C040402BB1A282816180404050527E4
:106AE0000228030102032D2A04041421131C071396
:106AF000032A6010016E657074756E65656D692E90
:106B0000636F6D2B0404211A38352A0435120517DA
:106B1000012A060403022B052AD0394E29212B54C1
:106B2000061E12071A041E13090816072A0401106C
:106B30001A20F75AC8421A70821A08821A0182195A
:106B40000B1A090B4A0F8D2C0A280321158C010200
:106B50000B1A193F1302013E0B2A1901101D2A0CB2
:106B6000573A0D634BA81A1D4D0D2A1A01792A0EAA
:106B70001D120F1A1B1829211AC4973C0F2A1B97A4
:106B80001310101A1063280B9ECADC240EE5A9E02E
:106B900093F32115E0A3B50117406E040413131AF3
:106BA000113C131212C9211DFCA3B50221241404A7
:106BB00014121219A7D1751F0621181B46146C1B3D
:106BC00013298E196C194E1A144E2A06219B34155E
:106BD000531CA3B5034E1B44144E12151931110555
:106BE0001D170621502417064019781B8204802A9D
:106BF00013341B88043CA1BC1306506121D3406EA2
:106C0000041E09066014190670000B1319081122DE
:106C1000334455667788140606F0041A03B15B28DE
:106C200010AA55FF775533221144668899BBDDCCF5
:106C300010D145806CCD540220011448E801021A9D
:046C400080000000D0
:04000005000000DD1A
:00000001FF
